{
  "contractName": "Dice",
  "abi": [
    {
      "constant": true,
      "inputs": [],
      "name": "secretSigner",
      "outputs": [
        {
          "name": "",
          "type": "address"
        }
      ],
      "payable": false,
      "stateMutability": "view",
      "type": "function"
    },
    {
      "constant": true,
      "inputs": [],
      "name": "jackpotSize",
      "outputs": [
        {
          "name": "",
          "type": "uint128"
        }
      ],
      "payable": false,
      "stateMutability": "view",
      "type": "function"
    },
    {
      "constant": true,
      "inputs": [],
      "name": "owner",
      "outputs": [
        {
          "name": "",
          "type": "address"
        }
      ],
      "payable": false,
      "stateMutability": "view",
      "type": "function"
    },
    {
      "constant": true,
      "inputs": [],
      "name": "maxProfit",
      "outputs": [
        {
          "name": "",
          "type": "uint256"
        }
      ],
      "payable": false,
      "stateMutability": "view",
      "type": "function"
    },
    {
      "constant": true,
      "inputs": [],
      "name": "lockedInBets",
      "outputs": [
        {
          "name": "",
          "type": "uint128"
        }
      ],
      "payable": false,
      "stateMutability": "view",
      "type": "function"
    },
    {
      "inputs": [],
      "payable": false,
      "stateMutability": "nonpayable",
      "type": "constructor"
    },
    {
      "payable": true,
      "stateMutability": "payable",
      "type": "fallback"
    },
    {
      "anonymous": false,
      "inputs": [
        {
          "indexed": false,
          "name": "commit",
          "type": "uint256"
        },
        {
          "indexed": true,
          "name": "gambler",
          "type": "address"
        },
        {
          "indexed": false,
          "name": "amount",
          "type": "uint256"
        },
        {
          "indexed": false,
          "name": "betMask",
          "type": "uint256"
        },
        {
          "indexed": false,
          "name": "modulo",
          "type": "uint256"
        }
      ],
      "name": "BetPlaced",
      "type": "event"
    },
    {
      "anonymous": false,
      "inputs": [
        {
          "indexed": true,
          "name": "beneficiary",
          "type": "address"
        },
        {
          "indexed": false,
          "name": "amount",
          "type": "uint256"
        }
      ],
      "name": "FailedPayment",
      "type": "event"
    },
    {
      "anonymous": false,
      "inputs": [
        {
          "indexed": true,
          "name": "beneficiary",
          "type": "address"
        },
        {
          "indexed": false,
          "name": "amount",
          "type": "uint256"
        }
      ],
      "name": "Payment",
      "type": "event"
    },
    {
      "anonymous": false,
      "inputs": [
        {
          "indexed": true,
          "name": "beneficiary",
          "type": "address"
        },
        {
          "indexed": false,
          "name": "amount",
          "type": "uint256"
        }
      ],
      "name": "JackpotPayment",
      "type": "event"
    },
    {
      "constant": false,
      "inputs": [
        {
          "name": "_nextOwner",
          "type": "address"
        }
      ],
      "name": "approveNextOwner",
      "outputs": [],
      "payable": false,
      "stateMutability": "nonpayable",
      "type": "function"
    },
    {
      "constant": false,
      "inputs": [],
      "name": "acceptNextOwner",
      "outputs": [],
      "payable": false,
      "stateMutability": "nonpayable",
      "type": "function"
    },
    {
      "constant": false,
      "inputs": [
        {
          "name": "newSecretSigner",
          "type": "address"
        }
      ],
      "name": "setSecretSigner",
      "outputs": [],
      "payable": false,
      "stateMutability": "nonpayable",
      "type": "function"
    },
    {
      "constant": false,
      "inputs": [
        {
          "name": "_maxProfit",
          "type": "uint256"
        }
      ],
      "name": "setMaxProfit",
      "outputs": [],
      "payable": false,
      "stateMutability": "nonpayable",
      "type": "function"
    },
    {
      "constant": false,
      "inputs": [
        {
          "name": "increaseAmount",
          "type": "uint256"
        }
      ],
      "name": "increaseJackpot",
      "outputs": [],
      "payable": false,
      "stateMutability": "nonpayable",
      "type": "function"
    },
    {
      "constant": false,
      "inputs": [
        {
          "name": "beneficiary",
          "type": "address"
        },
        {
          "name": "withdrawAmount",
          "type": "uint256"
        }
      ],
      "name": "withdrawFunds",
      "outputs": [],
      "payable": false,
      "stateMutability": "nonpayable",
      "type": "function"
    },
    {
      "constant": false,
      "inputs": [],
      "name": "kill",
      "outputs": [],
      "payable": false,
      "stateMutability": "nonpayable",
      "type": "function"
    },
    {
      "constant": false,
      "inputs": [
        {
          "name": "betMask",
          "type": "uint256"
        },
        {
          "name": "modulo",
          "type": "uint256"
        },
        {
          "name": "commitLastBlock",
          "type": "uint256"
        },
        {
          "name": "commit",
          "type": "uint256"
        },
        {
          "name": "v",
          "type": "uint8"
        },
        {
          "name": "r",
          "type": "bytes32"
        },
        {
          "name": "s",
          "type": "bytes32"
        }
      ],
      "name": "placeBet",
      "outputs": [],
      "payable": true,
      "stateMutability": "payable",
      "type": "function"
    },
    {
      "constant": false,
      "inputs": [
        {
          "name": "reveal",
          "type": "uint256"
        },
        {
          "name": "cleanCommit",
          "type": "uint256"
        }
      ],
      "name": "settleBet",
      "outputs": [],
      "payable": false,
      "stateMutability": "nonpayable",
      "type": "function"
    },
    {
      "constant": false,
      "inputs": [
        {
          "name": "commit",
          "type": "uint256"
        }
      ],
      "name": "refundBet",
      "outputs": [],
      "payable": false,
      "stateMutability": "nonpayable",
      "type": "function"
    },
    {
      "constant": false,
      "inputs": [
        {
          "name": "cleanCommits",
          "type": "uint256[]"
        }
      ],
      "name": "clearStorage",
      "outputs": [],
      "payable": false,
      "stateMutability": "nonpayable",
      "type": "function"
    }
  ],
  "bytecode": "0x608060405234801561001057600080fd5b5060008054600160a060020a031990811633179091556003805490911673eeeeeeeeeeeeeeeeeeeeeeeeeeeeeeeeeeeeeeee179055611b9d806100546000396000f3006080604052600436106100e55763ffffffff7c01000000000000000000000000000000000000000000000000000000006000350416630d2cbe1381146100e757806341c0e1b5146101025780634d61537f1461011757806357246d23146101485780637cee9ee8146101795780638da5cb5b14610199578063b539cd55146101ae578063c1075329146101d5578063d06c54fb146101f9578063d579fd441461020e578063d6d30a511461022f578063d702087f14610247578063df88126f14610268578063e1fdb4b41461027d578063ef11554214610295578063fbd668a9146102b5575b005b3480156100f357600080fd5b506100e56004356024356102cd565b34801561010e57600080fd5b506100e561076b565b34801561012357600080fd5b5061012c61088f565b60408051600160a060020a039092168252519081900360200190f35b34801561015457600080fd5b5061015d61089e565b604080516001608060020a039092168252519081900360200190f35b6100e560043560243560443560643560ff6084351660a43560c4356108ad565b3480156101a557600080fd5b5061012c610ec9565b3480156101ba57600080fd5b506101c3610ed8565b60408051918252519081900360200190f35b3480156101e157600080fd5b506100e5600160a060020a0360043516602435610ede565b34801561020557600080fd5b506100e5611046565b34801561021a57600080fd5b506100e5600160a060020a03600435166110eb565b34801561023b57600080fd5b506100e56004356111e2565b34801561025357600080fd5b506100e5600160a060020a036004351661136b565b34801561027457600080fd5b5061015d6113fc565b34801561028957600080fd5b506100e5600435611412565b3480156102a157600080fd5b506100e560048035602481019101356115cf565b3480156102c157600080fd5b506100e5600435611604565b6000806000806000806000806000806000806000808f604051602001808281526020019150506040516020818303038152906040526040518082805190602001908083835b602083106103315780518252601f199092019160209182019101610312565b6001836020036101000a0380198251168184511680821785525050505050509050019150506040518091039020600190049d50600560008f81526020019081526020016000209c508c600001549b508c60010160009054906101000a900460ff1660ff169a508c60010160019054906101000a900460ff1660ff1699508c60010160029054906101000a900464ffffffffff1664ffffffffff1698508c600101600c9054906101000a9004600160a060020a031697508b600014151515610468576040805160e560020a62461bcd02815260206004820152602260248201527f4265742073686f756c6420626520696e20616e2027616374697665272073746160448201527f7465000000000000000000000000000000000000000000000000000000000000606482015290519081900360840190fd5b4389106104e5576040805160e560020a62461bcd02815260206004820152603360248201527f736574746c6542657420696e207468652073616d6520626c6f636b206173207060448201527f6c6163654265742c206f72206265666f72652e00000000000000000000000000606482015290519081900360840190fd5b60fa8901431115610566576040805160e560020a62461bcd02815260206004820152602260248201527f426c6f636b686173682063616e2774206265207175657269656420627920455660448201527f4d2e000000000000000000000000000000000000000000000000000000000000606482015290519081900360840190fd5b60008d600001819055508f8940604051602001808381526020018260001916600019168152602001925050506040516020818303038152906040526040518082805190602001908083835b602083106105d05780518252601f1990920191602091820191016105b1565b5181516020939093036101000a6000190180199091169216919091179052604051920182900390912099508d92508991505081151561060b57fe5b0695506106198c8c8c6116f3565b90955093506000925082915060288b116106595760018d0154600287900a6701000000000000009091041664ffffffffff1615610654578492505b610665565b89861015610665578492505b600480546001608060020a03608060020a8083048216899003821602911617905567016345785d8a00008c106106de576103e88b888115156106a357fe5b048115156106ad57fe5b0690508015156106de57600480546fffffffffffffffffffffffffffffffff1981169091556001608060020a031691505b600082111561072757604080518381529051600160a060020a038a16917fc388db0e8aa560a59633c094a0d0aa21322cd6234836fd5bac00fc5ae63b5783919081900360200190a25b610744888484011561073b5783850161073e565b60015b8561183b565b8e151561075057610759565b6107598f6118ee565b50505050505050505050505050505050565b600054600160a060020a031633146107cd576040805160e560020a62461bcd0281526020600482015260266024820152600080516020611b52833981519152604482015260d160020a6537bbb732b91702606482015290519081900360840190fd5b600454608060020a90046001608060020a031615610881576040805160e560020a62461bcd02815260206004820152604860248201527f416c6c20626574732073686f756c642062652070726f6365737365642028736560448201527f74746c6564206f7220726566756e64656429206265666f72652073656c662d6460648201527f657374727563742e000000000000000000000000000000000000000000000000608482015290519081900360a40190fd5b600054600160a060020a0316ff5b600354600160a060020a031681565b6004546001608060020a031681565b6000848152600560205260408120600181015490919081908190819081906c010000000000000000000000009004600160a060020a03161561095f576040805160e560020a62461bcd02815260206004820152602160248201527f4265742073686f756c6420626520696e20612027636c65616e2720737461746560448201527f2e00000000000000000000000000000000000000000000000000000000000000606482015290519081900360840190fd5b34945060018c118015610973575060648c11155b15156109c9576040805160e560020a62461bcd02815260206004820152601e60248201527f4d6f64756c6f2073686f756c642062652077697468696e2072616e67652e0000604482015290519081900360640190fd5b662386f26fc1000085101580156109ea5750693f870857a3e0e38000008511155b1515610a40576040805160e560020a62461bcd02815260206004820152601e60248201527f416d6f756e742073686f756c642062652077697468696e2072616e67652e0000604482015290519081900360640190fd5b60008d118015610a555750650100000000008d105b1515610aab576040805160e560020a62461bcd02815260206004820152601c60248201527f4d61736b2073686f756c642062652077697468696e2072616e67652e00000000604482015290519081900360640190fd5b438b1015610b03576040805160e560020a62461bcd02815260206004820152601360248201527f436f6d6d69742068617320657870697265642e00000000000000000000000000604482015290519081900360640190fd5b610b108b8b8b8b8b611935565b1515610b66576040805160e560020a62461bcd02815260206004820152601d60248201527f4543445341207369676e6174757265206973206e6f742076616c69642e000000604482015290519081900360640190fd5b60288c11610bb957603f7920000000001000000000080000000004000000000200000000018e027e01041041041041041041041041041041041041041041041041041041041041160693508c9250610c49565b60008d118015610bc957508b8d11155b1515610c45576040805160e560020a62461bcd02815260206004820152602e60248201527f48696768206d6f64756c6f2072616e67652c206265744d61736b206c6172676560448201527f72207468616e206d6f64756c6f2e000000000000000000000000000000000000606482015290519081900360840190fd5b8c93505b610c54858d866116f3565b60025491935091508501821115610cb5576040805160e560020a62461bcd02815260206004820152601a60248201527f6d617850726f666974206c696d69742076696f6c6174696f6e2e000000000000604482015290519081900360640190fd5b600480546001608060020a03608060020a808304821686018216810292821692909217808216850182166fffffffffffffffffffffffffffffffff19919091161792839055303183821692909304811691909101161115610d60576040805160e560020a62461bcd02815260206004820152601f60248201527f43616e6e6f74206166666f726420746f206c6f73652074686973206265742e00604482015290519081900360640190fd5b8486600001819055508b8660010160006101000a81548160ff021916908360ff160217905550838660010160016101000a81548160ff021916908360ff160217905550438660010160026101000a81548164ffffffffff021916908364ffffffffff160217905550828660010160076101000a81548164ffffffffff021916908364ffffffffff1602179055503386600101600c6101000a815481600160a060020a030219169083600160a060020a0316021790555085600101600c9054906101000a9004600160a060020a0316600160a060020a03167fab2115bac1de808eb7fe2be0309085b11f1f42b1eb980de8352efefdbfc098e28b88600001548960010160079054906101000a900464ffffffffff168a60010160009054906101000a900460ff16604051808581526020018481526020018364ffffffffff1681526020018260ff16815260200194505050505060405180910390a250505050505050505050505050565b600054600160a060020a031681565b60025481565b600054600160a060020a03163314610f40576040805160e560020a62461bcd0281526020600482015260266024820152600080516020611b52833981519152604482015260d160020a6537bbb732b91702606482015290519081900360840190fd5b3031811115610fbe576040805160e560020a62461bcd028152602060048201526024808201527f496e63726561736520616d6f756e74206c6172676572207468616e2062616c6160448201527f6e63652e00000000000000000000000000000000000000000000000000000000606482015290519081900360840190fd5b60045430316001608060020a03808316608060020a90930481169290920190911682011115611037576040805160e560020a62461bcd02815260206004820152601160248201527f4e6f7420656e6f7567682066756e64732e000000000000000000000000000000604482015290519081900360640190fd5b61104282828361183b565b5050565b600154600160a060020a031633146110ba576040805160e560020a62461bcd02815260206004820152602660248201527f43616e206f6e6c792061636365707420707265617070726f766564206e657720604482015260d160020a6537bbb732b91702606482015290519081900360840190fd5b6001546000805473ffffffffffffffffffffffffffffffffffffffff1916600160a060020a03909216919091179055565b600054600160a060020a0316331461114d576040805160e560020a62461bcd0281526020600482015260266024820152600080516020611b52833981519152604482015260d160020a6537bbb732b91702606482015290519081900360840190fd5b600054600160a060020a03828116911614156111b3576040805160e560020a62461bcd02815260206004820152601d60248201527f43616e6e6f7420617070726f76652063757272656e74206f776e65722e000000604482015290519081900360640190fd5b6001805473ffffffffffffffffffffffffffffffffffffffff1916600160a060020a0392909216919091179055565b600054600160a060020a03163314611244576040805160e560020a62461bcd0281526020600482015260266024820152600080516020611b52833981519152604482015260d160020a6537bbb732b91702606482015290519081900360840190fd5b30318111156112c2576040805160e560020a62461bcd028152602060048201526024808201527f496e63726561736520616d6f756e74206c6172676572207468616e2062616c6160448201527f6e63652e00000000000000000000000000000000000000000000000000000000606482015290519081900360840190fd5b60045430316001608060020a03808316608060020a9093048116929092019091168201111561133b576040805160e560020a62461bcd02815260206004820152601160248201527f4e6f7420656e6f7567682066756e64732e000000000000000000000000000000604482015290519081900360640190fd5b600480546fffffffffffffffffffffffffffffffff1981166001608060020a039182169390930116919091179055565b600054600160a060020a031633146113cd576040805160e560020a62461bcd0281526020600482015260266024820152600080516020611b52833981519152604482015260d160020a6537bbb732b91702606482015290519081900360840190fd5b6003805473ffffffffffffffffffffffffffffffffffffffff1916600160a060020a0392909216919091179055565b600454608060020a90046001608060020a031681565b600081815260056020526040812080549091808215156114a2576040805160e560020a62461bcd02815260206004820152602260248201527f4265742073686f756c6420626520696e20616e2027616374697665272073746160448201527f7465000000000000000000000000000000000000000000000000000000000000606482015290519081900360840190fd5b600184015464ffffffffff620100009091041660fa014311611534576040805160e560020a62461bcd02815260206004820152602260248201527f426c6f636b686173682063616e2774206265207175657269656420627920455660448201527f4d2e000000000000000000000000000000000000000000000000000000000000606482015290519081900360840190fd5b60008455600184015461155490849060ff808216916101009004166116f3565b600480546001608060020a03608060020a8083048216869003821602918116919091178082168490039091166fffffffffffffffffffffffffffffffff1991909116179055600186015491935091506115c890600160a060020a036c0100000000000000000000000090910416848061183b565b5050505050565b8060005b818110156115fe576115f68484838181106115ea57fe5b905060200201356118ee565b6001016115d3565b50505050565b600054600160a060020a03163314611666576040805160e560020a62461bcd0281526020600482015260266024820152600080516020611b52833981519152604482015260d160020a6537bbb732b91702606482015290519081900360840190fd5b693f870857a3e0e38000008111156116ee576040805160e560020a62461bcd02815260206004820152602260248201527f6d617850726f6669742073686f756c6420626520612073616e65206e756d626560448201527f722e000000000000000000000000000000000000000000000000000000000000606482015290519081900360840190fd5b600255565b60008060008360001080156117085750848411155b151561175e576040805160e560020a62461bcd02815260206004820152601d60248201527f57696e2070726f626162696c697479206f7574206f662072616e67652e000000604482015290519081900360640190fd5b67016345785d8a000086101561177557600061177e565b66038d7ea4c680005b91505060648504660110d9316ec00081101561179e5750660110d9316ec0005b80820186101561181e576040805160e560020a62461bcd02815260206004820152602260248201527f42657420646f65736e2774206576656e20636f76657220686f7573652065646760448201527f652e000000000000000000000000000000000000000000000000000000000000606482015290519081900360840190fd5b838583838903030281151561182f57fe5b04925050935093915050565b604051600160a060020a0384169083156108fc029084906000818181858888f19350505050156118a957604080518281529051600160a060020a038516917fd4f43975feb89f48dd30cabbb32011045be187d1e11c8ea9faa43efc35282519919081900360200190a26118e9565b604080518381529051600160a060020a038516917fac464fe4d3a86b9121261ac0a01dd981bfe0777c7c9d9c8f4473d31a9c0f9d2d919081900360200190a25b505050565b600081815260056020526040902080541515806119205750600181015464ffffffffff620100009091041660fa014311155b1561192a57611042565b600060018201555050565b604080518082018252601c81527f19457468657265756d205369676e6564204d6573736167653a0a33320000000060208083019190915282517b0100000000000000000000000000000000000000000000000000000064ffffffffff8a1602818301526025808201899052845180830390910181526045909101938490528051600094859384939282918401908083835b602083106119e55780518252601f1990920191602091820191016119c6565b6001836020036101000a0380198251168184511680821785525050505050509050019150506040518091039020915082826040516020018083805190602001908083835b60208310611a485780518252601f199092019160209182019101611a29565b51815160209384036101000a600019018019909216911617905292019384525060408051808503815293820190819052835193945092839250908401908083835b60208310611aa85780518252601f199092019160209182019101611a89565b51815160209384036101000a600019018019909216911617905260408051929094018290038220600080845283830180875282905260ff8f1684870152606084018e9052608084018d905294519097506001965060a080840196509194601f19820194509281900390910191865af1158015611b28573d6000803e3d6000fd5b5050604051601f190151600354600160a060020a039182169116149a995050505050505050505056004f6e6c794f776e6572206d6574686f64732063616c6c6564206279206e6f6e2da165627a7a7230582048229c54c0e6b4803abc4f22ff5a3fa8a3b556b2252d7599c6e87cea94213aae0029",
  "source": "pragma solidity 0.4.24;\n\n// * dice2.win - fair games that pay Ether.\n//\n// * Ethereum smart contract, deployed at 0xD1CEeeefA68a6aF0A5f6046132D986066c7f9426.\n//\n// * Uses hybrid commit-reveal + block hash random number generation that is immune\n//   to tampering by players, house and miners. Apart from being fully transparent,\n//   this also allows arbitrarily high bets.\n//\n// * Refer to https://dice2.win/whitepaper.pdf for detailed description and proofs.\n\ncontract Dice {\n    /// *** Constants section\n\n    // Each bet is deducted 1% in favour of the house, but no less than some minimum.\n    // The lower bound is dictated by gas costs of the settleBet transaction, providing\n    // headroom for up to 10 Gwei prices.\n    uint constant HOUSE_EDGE_PERCENT = 1;\n    uint constant HOUSE_EDGE_MINIMUM_AMOUNT = 0.0003 ether;\n\n    // Bets lower than this amount do not participate in jackpot rolls (and are\n    // not deducted JACKPOT_FEE).\n    uint constant MIN_JACKPOT_BET = 0.1 ether;\n\n    // Chance to win jackpot (currently 0.1%) and fee deducted into jackpot fund.\n    uint constant JACKPOT_MODULO = 1000;\n    uint constant JACKPOT_FEE = 0.001 ether;\n\n    // There is minimum and maximum bets.\n    uint constant MIN_BET = 0.01 ether;\n    uint constant MAX_AMOUNT = 300000 ether;\n\n    // Modulo is a number of equiprobable outcomes in a game:\n    //  - 2 for coin flip\n    //  - 6 for dice\n    //  - 6*6 = 36 for double dice\n    //  - 100 for etheroll\n    //  - 37 for roulette\n    //  etc.\n    // It's called so because 256-bit entropy is treated like a huge integer and\n    // the remainder of its division by modulo is considered bet outcome.\n    uint constant MAX_MODULO = 100;\n\n    // For modulos below this threshold rolls are checked against a bit mask,\n    // thus allowing betting on any combination of outcomes. For example, given\n    // modulo 6 for dice, 101000 mask (base-2, big endian) means betting on\n    // 4 and 6; for games with modulos higher than threshold (Etheroll), a simple\n    // limit is used, allowing betting on any outcome in [0, N) range.\n    //\n    // The specific value is dictated by the fact that 256-bit intermediate\n    // multiplication result allows implementing population count efficiently\n    // for numbers that are up to 42 bits, and 40 is the highest multiple of\n    // eight below 42.\n    uint constant MAX_MASK_MODULO = 40;\n\n    // This is a check on bet mask overflow.\n    uint constant MAX_BET_MASK = 2 ** MAX_MASK_MODULO;\n\n    // EVM BLOCKHASH opcode can query no further than 256 blocks into the\n    // past. Given that settleBet uses block hash of placeBet as one of\n    // complementary entropy sources, we cannot process bets older than this\n    // threshold. On rare occasions dice2.win croupier may fail to invoke\n    // settleBet in this timespan due to technical issues or extreme Ethereum\n    // congestion; such bets can be refunded via invoking refundBet.\n    uint constant BET_EXPIRATION_BLOCKS = 250;\n\n    // Some deliberately invalid address to initialize the secret signer with.\n    // Forces maintainers to invoke setSecretSigner before processing any bets.\n    address constant DUMMY_ADDRESS = 0xEeeeeEeeeEeEeeEeEeEeeEEEeeeeEeeeeeeeEEeE;\n\n    // Standard contract ownership transfer.\n    address public owner;\n    address private nextOwner;\n\n    // Adjustable max bet profit. Used to cap bets against dynamic odds.\n    uint public maxProfit;\n\n    // The address corresponding to a private key used to sign placeBet commits.\n    address public secretSigner;\n\n    // Accumulated jackpot fund.\n    uint128 public jackpotSize;\n\n    // Funds that are locked in potentially winning bets. Prevents contract from\n    // committing to bets it cannot pay out.\n    uint128 public lockedInBets;\n\n    // A structure representing a single bet.\n    struct Bet {\n        // Wager amount in wei.\n        uint amount;\n        // Modulo of a game.\n        uint8 modulo;\n        // Number of winning outcomes, used to compute winning payment (* modulo/rollUnder),\n        // and used instead of mask for games with modulo > MAX_MASK_MODULO.\n        uint8 rollUnder;\n        // Block number of placeBet tx.\n        uint40 placeBlockNumber;\n        // Bit mask representing winning bet outcomes (see MAX_MASK_MODULO comment).\n        uint40 mask;\n        // Address of a gambler, used to pay out winning bets.\n        address gambler;\n    }\n\n    // Mapping from commits to all currently active & processed bets.\n    mapping (uint => Bet) bets;\n\n    // Events that are issued to make statistic recovery easier.\n    event BetPlaced(\n        uint commit,\n        address indexed gambler,\n        uint amount,\n        uint betMask,\n        uint modulo\n    );\n\n    event FailedPayment(address indexed beneficiary, uint amount);\n    event Payment(address indexed beneficiary, uint amount);\n    event JackpotPayment(address indexed beneficiary, uint amount);\n\n    // Constructor. Deliberately does not take any parameters.\n    constructor () public {\n        owner = msg.sender;\n        secretSigner = DUMMY_ADDRESS;\n    }\n\n    // Standard modifier on methods invokable only by contract owner.\n    modifier onlyOwner {\n        require (msg.sender == owner, \"OnlyOwner methods called by non-owner.\");\n        _;\n    }\n\n    // Standard contract ownership transfer implementation,\n    function approveNextOwner(address _nextOwner) external onlyOwner {\n        require (_nextOwner != owner, \"Cannot approve current owner.\");\n        nextOwner = _nextOwner;\n    }\n\n    function acceptNextOwner() external {\n        require (msg.sender == nextOwner, \"Can only accept preapproved new owner.\");\n        owner = nextOwner;\n    }\n\n    // Fallback function deliberately left empty. It's primary use case\n    // is to top up the bank roll.\n    function () public payable {\n    }\n\n    // See comment for \"secretSigner\" variable.\n    function setSecretSigner(address newSecretSigner) external onlyOwner {\n        secretSigner = newSecretSigner;\n    }\n\n    // Change max bet reward. Setting this to zero effectively disables betting.\n    function setMaxProfit(uint _maxProfit) public onlyOwner {\n        require (_maxProfit <= MAX_AMOUNT, \"maxProfit should be a sane number.\");\n        maxProfit = _maxProfit;\n    }\n\n    // This function is used to bump up the jackpot fund. Cannot be used to lower it.\n    function increaseJackpot(uint increaseAmount) external onlyOwner {\n        require (increaseAmount <= address(this).balance, \"Increase amount larger than balance.\");\n        require (jackpotSize + lockedInBets + increaseAmount <= address(this).balance, \"Not enough funds.\");\n        jackpotSize += uint128(increaseAmount);\n    }\n\n    // Funds withdrawal to cover costs of dice2.win operation.\n    function withdrawFunds(address beneficiary, uint withdrawAmount) external onlyOwner {\n        require (withdrawAmount <= address(this).balance, \"Increase amount larger than balance.\");\n        require (jackpotSize + lockedInBets + withdrawAmount <= address(this).balance, \"Not enough funds.\");\n        sendFunds(beneficiary, withdrawAmount, withdrawAmount);\n    }\n\n    // Contract may be destroyed only when there are no ongoing bets,\n    // either settled or refunded. All funds are transferred to contract owner.\n    function kill() external onlyOwner {\n        require (lockedInBets == 0, \"All bets should be processed (settled or refunded) before self-destruct.\");\n        selfdestruct(owner);\n    }\n\n    // Verify signature of provided data\n    function verifySignature(uint commitLastBlock, uint commit, uint8 v, bytes32 r, bytes32 s) private view returns (bool) {\n        bytes memory prefix = \"\\x19Ethereum Signed Message:\\n32\";\n        bytes32 hash = keccak256(abi.encodePacked(uint40(commitLastBlock), commit));\n        bytes32 signatureHash = keccak256(abi.encodePacked(prefix, hash));\n\n        return secretSigner == ecrecover(signatureHash, v, r, s);\n    }\n\n    /// *** Betting logic\n\n    // Bet states:\n    //  amount == 0 && gambler == 0 - 'clean' (can place a bet)\n    //  amount != 0 && gambler != 0 - 'active' (can be settled or refunded)\n    //  amount == 0 && gambler != 0 - 'processed' (can clean storage)\n\n    // Bet placing transaction - issued by the player.\n    //  betMask         - bet outcomes bit mask for modulo <= MAX_MASK_MODULO,\n    //                    [0, betMask) for larger modulos.\n    //  modulo          - game modulo.\n    //  commitLastBlock - number of the maximum block where \"commit\" is still considered valid.\n    //  commit          - Keccak256 hash of some secret \"reveal\" random number, to be supplied\n    //                    by the dice2.win croupier bot in the settleBet transaction. Supplying\n    //                    \"commit\" ensures that \"reveal\" cannot be changed behind the scenes\n    //                    after placeBet have been mined.\n    //  r, s            - components of ECDSA signature of (commitLastBlock, commit). v is\n    //                    guaranteed to always equal 27.\n    //\n    // Commit, being essentially random 256-bit number, is used as a unique bet identifier in\n    // the 'bets' mapping.\n    //\n    // Commits are signed with a block limit to ensure that they are used at most once - otherwise\n    // it would be possible for a miner to place a bet with a known commit/reveal pair and tamper\n    // with the blockhash. Croupier guarantees that commitLastBlock will always be not greater than\n    // placeBet block number plus BET_EXPIRATION_BLOCKS. See whitepaper for details.\n    function placeBet(uint betMask, uint modulo, uint commitLastBlock, uint commit, uint8 v, bytes32 r, bytes32 s) external payable {\n        // Check that the bet is in 'clean' state.\n        Bet storage bet = bets[commit];\n        require (bet.gambler == address(0), \"Bet should be in a 'clean' state.\");\n\n        // Validate input data ranges.\n        uint amount = msg.value;\n        require (modulo > 1 && modulo <= MAX_MODULO, \"Modulo should be within range.\");\n        require (amount >= MIN_BET && amount <= MAX_AMOUNT, \"Amount should be within range.\");\n        require (betMask > 0 && betMask < MAX_BET_MASK, \"Mask should be within range.\");\n\n        // Check that commit is valid - it has not expired and its signature is valid.\n        require (block.number <= commitLastBlock, \"Commit has expired.\");\n        require (verifySignature(commitLastBlock, commit, v, r, s), \"ECDSA signature is not valid.\");\n\n        uint rollUnder;\n        uint mask;\n\n        if (modulo <= MAX_MASK_MODULO) {\n            // Small modulo games specify bet outcomes via bit mask.\n            // rollUnder is a number of 1 bits in this mask (population count).\n            // This magic looking formula is an efficient way to compute population\n            // count on EVM for numbers below 2**40. For detailed proof consult\n            // the dice2.win whitepaper.\n            rollUnder = ((betMask * POPCNT_MULT) & POPCNT_MASK) % POPCNT_MODULO;\n            mask = betMask;\n        } else {\n            // Larger modulos specify the right edge of half-open interval of\n            // winning bet outcomes.\n            require (betMask > 0 && betMask <= modulo, \"High modulo range, betMask larger than modulo.\");\n            rollUnder = betMask;\n        }\n\n        // Winning amount and jackpot increase.\n        uint possibleWinAmount;\n        uint jackpotFee;\n\n        (possibleWinAmount, jackpotFee) = getDiceWinAmount(amount, modulo, rollUnder);\n\n        // Enforce max profit limit.\n        require (possibleWinAmount <= amount + maxProfit, \"maxProfit limit violation.\");\n\n        // Lock funds.\n        lockedInBets += uint128(possibleWinAmount);\n        jackpotSize += uint128(jackpotFee);\n\n        // Check whether contract has enough funds to process this bet.\n        require (jackpotSize + lockedInBets <= address(this).balance, \"Cannot afford to lose this bet.\");\n\n        // Store bet parameters on blockchain.\n        bet.amount = amount;\n        bet.modulo = uint8(modulo);\n        bet.rollUnder = uint8(rollUnder);\n        bet.placeBlockNumber = uint40(block.number);\n        bet.mask = uint40(mask);\n        bet.gambler = msg.sender;\n\n        // Emit bet event\n        emit BetPlaced(commit, bet.gambler, bet.amount, bet.mask, bet.modulo);\n    }\n\n    // Settlement transaction - can in theory be issued by anyone, but is designed to be\n    // handled by the dice2.win croupier bot. To settle a bet with a specific \"commit\",\n    // settleBet should supply a \"reveal\" number that would Keccak256-hash to\n    // \"commit\". clean_commit is some previously 'processed' bet, that will be moved into\n    // 'clean' state to prevent blockchain bloat and refund some gas.\n    function settleBet(uint reveal, uint cleanCommit) external {\n        // \"commit\" for bet settlement can only be obtained by hashing a \"reveal\".\n        uint commit = uint(keccak256(abi.encodePacked(reveal)));\n\n        // Fetch bet parameters into local variables (to save gas).\n        Bet storage bet = bets[commit];\n        uint amount = bet.amount;\n        uint modulo = bet.modulo;\n        uint rollUnder = bet.rollUnder;\n        uint placeBlockNumber = bet.placeBlockNumber;\n        address gambler = bet.gambler;\n\n        // Check that bet is in 'active' state.\n        require (amount != 0, \"Bet should be in an 'active' state\");\n\n        // Check that bet has not expired yet (see comment to BET_EXPIRATION_BLOCKS).\n        require (block.number > placeBlockNumber, \"settleBet in the same block as placeBet, or before.\");\n        require (block.number <= placeBlockNumber + BET_EXPIRATION_BLOCKS, \"Blockhash can't be queried by EVM.\");\n\n        // Move bet into 'processed' state already.\n        bet.amount = 0;\n\n        // The RNG - combine \"reveal\" and blockhash of placeBet using Keccak256. Miners\n        // are not aware of \"reveal\" and cannot deduce it from \"commit\" (as Keccak256\n        // preimage is intractable), and house is unable to alter the \"reveal\" after\n        // placeBet have been mined (as Keccak256 collision finding is also intractable).\n        bytes32 entropy = keccak256(abi.encodePacked(reveal, blockhash(placeBlockNumber)));\n\n        // Do a roll by taking a modulo of entropy. Compute winning amount.\n        uint dice = uint(entropy) % modulo;\n\n        uint diceWinAmount;\n        uint _jackpotFee;\n        (diceWinAmount, _jackpotFee) = getDiceWinAmount(amount, modulo, rollUnder);\n\n        uint diceWin = 0;\n        uint jackpotWin = 0;\n\n        // Determine dice outcome.\n        if (modulo <= MAX_MASK_MODULO) {\n            // For small modulo games, check the outcome against a bit mask.\n            if ((2 ** dice) & bet.mask != 0) {\n                diceWin = diceWinAmount;\n            }\n\n        } else {\n            // For larger modulos, check inclusion into half-open interval.\n            if (dice < rollUnder) {\n                diceWin = diceWinAmount;\n            }\n\n        }\n\n        // Unlock the bet amount, regardless of the outcome.\n        lockedInBets -= uint128(diceWinAmount);\n\n        // Roll for a jackpot (if eligible).\n        if (amount >= MIN_JACKPOT_BET) {\n            // The second modulo, statistically independent from the \"main\" dice roll.\n            // Effectively you are playing two games at once!\n            uint jackpotRng = (uint(entropy) / modulo) % JACKPOT_MODULO;\n\n            // Bingo!\n            if (jackpotRng == 0) {\n                jackpotWin = jackpotSize;\n                jackpotSize = 0;\n            }\n        }\n\n        // Log jackpot win.\n        if (jackpotWin > 0) {\n            emit JackpotPayment(gambler, jackpotWin);\n        }\n\n        // Send the funds to gambler.\n        sendFunds(gambler, diceWin + jackpotWin == 0 ? 1 wei : diceWin + jackpotWin, diceWin);\n\n        // Clear storage of some previous bet.\n        if (cleanCommit == 0) {\n            return;\n        }\n\n        clearProcessedBet(cleanCommit);\n    }\n\n    // Refund transaction - return the bet amount of a roll that was not processed in a\n    // due timeframe. Processing such blocks is not possible due to EVM limitations (see\n    // BET_EXPIRATION_BLOCKS comment above for details). In case you ever find yourself\n    // in a situation like this, just contact the dice2.win support, however nothing\n    // precludes you from invoking this method yourself.\n    //\n    // TODO: regund for specific commit should be triggered only by contract owner or bet beneficiar\n    function refundBet(uint commit) external {\n        // Check that bet is in 'active' state.\n        Bet storage bet = bets[commit];\n        uint amount = bet.amount;\n\n        require (amount != 0, \"Bet should be in an 'active' state\");\n\n        // Check that bet has already expired.\n        require (block.number > bet.placeBlockNumber + BET_EXPIRATION_BLOCKS, \"Blockhash can't be queried by EVM.\");\n\n        // Move bet into 'processed' state, release funds.\n        bet.amount = 0;\n\n        uint diceWinAmount;\n        uint jackpotFee;\n        (diceWinAmount, jackpotFee) = getDiceWinAmount(amount, bet.modulo, bet.rollUnder);\n\n        lockedInBets -= uint128(diceWinAmount);\n        jackpotSize -= uint128(jackpotFee);\n\n        // Send the refund.\n        sendFunds(bet.gambler, amount, amount);\n    }\n\n    // A helper routine to bulk clean the storage.\n    function clearStorage(uint[] cleanCommits) external {\n        uint length = cleanCommits.length;\n\n        for (uint i = 0; i < length; i++) {\n            clearProcessedBet(cleanCommits[i]);\n        }\n    }\n\n    // Helper routine to move 'processed' bets into 'clean' state.\n    function clearProcessedBet(uint commit) private {\n        Bet storage bet = bets[commit];\n\n        // Do not overwrite active bets with zeros; additionally prevent cleanup of bets\n        // for which commit signatures may have not expired yet (see whitepaper for details).\n        if (bet.amount != 0 || block.number <= bet.placeBlockNumber + BET_EXPIRATION_BLOCKS) {\n            return;\n        }\n\n        // Zero out the remaining storage (amount was zeroed before, delete would consume 5k\n        // more gas).\n        bet.modulo = 0;\n        bet.rollUnder = 0;\n        bet.placeBlockNumber = 0;\n        bet.mask = 0;\n        bet.gambler = address(0);\n    }\n\n    // Get the expected win amount after house edge is subtracted.\n    function getDiceWinAmount(uint amount, uint modulo, uint rollUnder) private pure returns (uint winAmount, uint jackpotFee) {\n        require (0 < rollUnder && rollUnder <= modulo, \"Win probability out of range.\");\n\n        jackpotFee = amount >= MIN_JACKPOT_BET ? JACKPOT_FEE : 0;\n\n        uint houseEdge = amount * HOUSE_EDGE_PERCENT / 100;\n\n        if (houseEdge < HOUSE_EDGE_MINIMUM_AMOUNT) {\n            houseEdge = HOUSE_EDGE_MINIMUM_AMOUNT;\n        }\n\n        require (houseEdge + jackpotFee <= amount, \"Bet doesn't even cover house edge.\");\n        winAmount = (amount - houseEdge - jackpotFee) * modulo / rollUnder;\n    }\n\n    // Helper routine to process the payment.\n    function sendFunds(address beneficiary, uint amount, uint successLogAmount) private {\n        if (beneficiary.send(amount)) {\n            emit Payment(beneficiary, successLogAmount);\n        } else {\n            emit FailedPayment(beneficiary, amount);\n        }\n    }\n\n    // This are some constants making O(1) population count in placeBet possible.\n    // See whitepaper for intuition and proofs behind it.\n    // https://en.wikipedia.org/wiki/Hamming_weight\n    uint constant POPCNT_MULT = 0x0000000000002000000000100000000008000000000400000000020000000001;\n    uint constant POPCNT_MASK = 0x0001041041041041041041041041041041041041041041041041041041041041;\n    uint constant POPCNT_MODULO = 0x3F;\n}",
  "sourcePath": "/Users/dimitrykislichenko/Workspace/games/contract/contracts/Dice.sol",
  "compiler": {
    "name": "solc",
    "version": "0.4.24+commit.e67f0147.Emscripten.clang"
  },
  "schemaVersion": "2.0.1",
  "updatedAt": "2018-12-19T14:08:01.322Z"
}