{
  "contractName": "Dice",
  "abi": [
    {
      "constant": true,
      "inputs": [],
      "name": "secretSigner",
      "outputs": [
        {
          "name": "",
          "type": "address"
        }
      ],
      "payable": false,
      "stateMutability": "view",
      "type": "function"
    },
    {
      "constant": true,
      "inputs": [],
      "name": "jackpotSize",
      "outputs": [
        {
          "name": "",
          "type": "uint128"
        }
      ],
      "payable": false,
      "stateMutability": "view",
      "type": "function"
    },
    {
      "constant": true,
      "inputs": [],
      "name": "croupier",
      "outputs": [
        {
          "name": "",
          "type": "address"
        }
      ],
      "payable": false,
      "stateMutability": "view",
      "type": "function"
    },
    {
      "constant": true,
      "inputs": [],
      "name": "owner",
      "outputs": [
        {
          "name": "",
          "type": "address"
        }
      ],
      "payable": false,
      "stateMutability": "view",
      "type": "function"
    },
    {
      "constant": true,
      "inputs": [],
      "name": "maxProfit",
      "outputs": [
        {
          "name": "",
          "type": "uint256"
        }
      ],
      "payable": false,
      "stateMutability": "view",
      "type": "function"
    },
    {
      "constant": true,
      "inputs": [],
      "name": "lockedInBets",
      "outputs": [
        {
          "name": "",
          "type": "uint128"
        }
      ],
      "payable": false,
      "stateMutability": "view",
      "type": "function"
    },
    {
      "inputs": [],
      "payable": false,
      "stateMutability": "nonpayable",
      "type": "constructor"
    },
    {
      "payable": true,
      "stateMutability": "payable",
      "type": "fallback"
    },
    {
      "anonymous": false,
      "inputs": [
        {
          "indexed": true,
          "name": "beneficiary",
          "type": "address"
        },
        {
          "indexed": false,
          "name": "amount",
          "type": "uint256"
        }
      ],
      "name": "FailedPayment",
      "type": "event"
    },
    {
      "anonymous": false,
      "inputs": [
        {
          "indexed": true,
          "name": "beneficiary",
          "type": "address"
        },
        {
          "indexed": false,
          "name": "amount",
          "type": "uint256"
        }
      ],
      "name": "Payment",
      "type": "event"
    },
    {
      "anonymous": false,
      "inputs": [
        {
          "indexed": true,
          "name": "beneficiary",
          "type": "address"
        },
        {
          "indexed": false,
          "name": "amount",
          "type": "uint256"
        }
      ],
      "name": "JackpotPayment",
      "type": "event"
    },
    {
      "anonymous": false,
      "inputs": [
        {
          "indexed": false,
          "name": "commit",
          "type": "uint256"
        },
        {
          "indexed": true,
          "name": "gambler",
          "type": "address"
        },
        {
          "indexed": false,
          "name": "amount",
          "type": "uint256"
        },
        {
          "indexed": false,
          "name": "betMask",
          "type": "uint256"
        },
        {
          "indexed": false,
          "name": "modulo",
          "type": "uint256"
        }
      ],
      "name": "BetPlaced",
      "type": "event"
    },
    {
      "constant": false,
      "inputs": [
        {
          "name": "_nextOwner",
          "type": "address"
        }
      ],
      "name": "approveNextOwner",
      "outputs": [],
      "payable": false,
      "stateMutability": "nonpayable",
      "type": "function"
    },
    {
      "constant": false,
      "inputs": [],
      "name": "acceptNextOwner",
      "outputs": [],
      "payable": false,
      "stateMutability": "nonpayable",
      "type": "function"
    },
    {
      "constant": false,
      "inputs": [
        {
          "name": "newSecretSigner",
          "type": "address"
        }
      ],
      "name": "setSecretSigner",
      "outputs": [],
      "payable": false,
      "stateMutability": "nonpayable",
      "type": "function"
    },
    {
      "constant": false,
      "inputs": [
        {
          "name": "newCroupier",
          "type": "address"
        }
      ],
      "name": "setCroupier",
      "outputs": [],
      "payable": false,
      "stateMutability": "nonpayable",
      "type": "function"
    },
    {
      "constant": false,
      "inputs": [
        {
          "name": "_maxProfit",
          "type": "uint256"
        }
      ],
      "name": "setMaxProfit",
      "outputs": [],
      "payable": false,
      "stateMutability": "nonpayable",
      "type": "function"
    },
    {
      "constant": false,
      "inputs": [
        {
          "name": "increaseAmount",
          "type": "uint256"
        }
      ],
      "name": "increaseJackpot",
      "outputs": [],
      "payable": false,
      "stateMutability": "nonpayable",
      "type": "function"
    },
    {
      "constant": false,
      "inputs": [
        {
          "name": "beneficiary",
          "type": "address"
        },
        {
          "name": "withdrawAmount",
          "type": "uint256"
        }
      ],
      "name": "withdrawFunds",
      "outputs": [],
      "payable": false,
      "stateMutability": "nonpayable",
      "type": "function"
    },
    {
      "constant": false,
      "inputs": [],
      "name": "kill",
      "outputs": [],
      "payable": false,
      "stateMutability": "nonpayable",
      "type": "function"
    },
    {
      "constant": false,
      "inputs": [
        {
          "name": "betMask",
          "type": "uint256"
        },
        {
          "name": "modulo",
          "type": "uint256"
        },
        {
          "name": "commitLastBlock",
          "type": "uint256"
        },
        {
          "name": "commit",
          "type": "uint256"
        },
        {
          "name": "v",
          "type": "uint8"
        },
        {
          "name": "r",
          "type": "bytes32"
        },
        {
          "name": "s",
          "type": "bytes32"
        }
      ],
      "name": "placeBet",
      "outputs": [],
      "payable": true,
      "stateMutability": "payable",
      "type": "function"
    },
    {
      "constant": false,
      "inputs": [
        {
          "name": "reveal",
          "type": "uint256"
        },
        {
          "name": "blockHash",
          "type": "bytes32"
        }
      ],
      "name": "settleBet",
      "outputs": [],
      "payable": false,
      "stateMutability": "nonpayable",
      "type": "function"
    },
    {
      "constant": false,
      "inputs": [
        {
          "name": "reveal",
          "type": "uint256"
        },
        {
          "name": "canonicalBlockNumber",
          "type": "uint40"
        }
      ],
      "name": "settleBetUncleMerkleProof",
      "outputs": [],
      "payable": false,
      "stateMutability": "nonpayable",
      "type": "function"
    },
    {
      "constant": false,
      "inputs": [
        {
          "name": "commit",
          "type": "uint256"
        }
      ],
      "name": "refundBet",
      "outputs": [],
      "payable": false,
      "stateMutability": "nonpayable",
      "type": "function"
    }
  ],
  "bytecode": "0x608060405234801561001057600080fd5b5060008054600160a060020a0319908116331790915560038054821673eeeeeeeeeeeeeeeeeeeeeeeeeeeeeeeeeeeeeeee90811790915560068054909216179055612691806100606000396000f3006080604052600436106100fb5763ffffffff7c010000000000000000000000000000000000000000000000000000000060003504166341c0e1b581146100fd5780634d61537f1461011257806357246d23146101435780636b5c5f391461017457806374e048d5146101895780637cee9ee8146101ab5780638da5cb5b146101cb578063b539cd55146101e0578063c107532914610207578063ca722cdc1461022b578063d06c54fb14610246578063d579fd441461025b578063d6d30a511461027c578063d702087f14610294578063df88126f146102b5578063e1fdb4b4146102ca578063f8bb201c146102e2578063fbd668a914610303575b005b34801561010957600080fd5b506100fb61031b565b34801561011e57600080fd5b5061012761043f565b60408051600160a060020a039092168252519081900360200190f35b34801561014f57600080fd5b5061015861044e565b604080516001608060020a039092168252519081900360200190f35b34801561018057600080fd5b5061012761045d565b34801561019557600080fd5b506100fb60043564ffffffffff6024351661046c565b6100fb60043560243560443560643560ff6084351660a43560c435610653565b3480156101d757600080fd5b50610127610c6f565b3480156101ec57600080fd5b506101f5610c7e565b60408051918252519081900360200190f35b34801561021357600080fd5b506100fb600160a060020a0360043516602435610c84565b34801561023757600080fd5b506100fb600435602435610dec565b34801561025257600080fd5b506100fb611039565b34801561026757600080fd5b506100fb600160a060020a03600435166110de565b34801561028857600080fd5b506100fb6004356111d5565b3480156102a057600080fd5b506100fb600160a060020a036004351661135e565b3480156102c157600080fd5b506101586113ef565b3480156102d657600080fd5b506100fb600435611405565b3480156102ee57600080fd5b506100fb600160a060020a03600435166115bb565b34801561030f57600080fd5b506100fb60043561164c565b600054600160a060020a0316331461037d576040805160e560020a62461bcd0281526020600482015260266024820152600080516020612646833981519152604482015260d160020a6537bbb732b91702606482015290519081900360840190fd5b600454608060020a90046001608060020a031615610431576040805160e560020a62461bcd02815260206004820152604860248201527f416c6c20626574732073686f756c642062652070726f6365737365642028736560448201527f74746c6564206f7220726566756e64656429206265666f72652073656c662d6460648201527f657374727563742e000000000000000000000000000000000000000000000000608482015290519081900360a40190fd5b600054600160a060020a0316ff5b600354600160a060020a031681565b6004546001608060020a031681565b600654600160a060020a031681565b600654600090819081908190600160a060020a031633146104fd576040805160e560020a62461bcd02815260206004820152602c60248201527f4f6e6c7943726f7570696572206d6574686f64732063616c6c6564206279206e60448201527f6f6e2d63726f75706965722e0000000000000000000000000000000000000000606482015290519081900360840190fd5b85604051602001808281526020019150506040516020818303038152906040526040518082805190602001908083835b6020831061054c5780518252601f19909201916020918201910161052d565b51815160209384036101000a600019018019909216911617905260408051929094018290039091206000818152600590925292902091975090955050505060fa64ffffffffff861601431115610612576040805160e560020a62461bcd02815260206004820152602260248201527f426c6f636b686173682063616e2774206265207175657269656420627920455660448201527f4d2e000000000000000000000000000000000000000000000000000000000000606482015290519081900360840190fd5b61061c604861173a565b610627846044611cbb565b909250905064ffffffffff851640821461064057600080fd5b61064b838783611f49565b505050505050565b6000848152600560205260408120600181015490919081908190819081906c010000000000000000000000009004600160a060020a031615610705576040805160e560020a62461bcd02815260206004820152602160248201527f4265742073686f756c6420626520696e20612027636c65616e2720737461746560448201527f2e00000000000000000000000000000000000000000000000000000000000000606482015290519081900360840190fd5b34945060018c118015610719575060648c11155b151561076f576040805160e560020a62461bcd02815260206004820152601e60248201527f4d6f64756c6f2073686f756c642062652077697468696e2072616e67652e0000604482015290519081900360640190fd5b662386f26fc1000085101580156107905750693f870857a3e0e38000008511155b15156107e6576040805160e560020a62461bcd02815260206004820152601e60248201527f416d6f756e742073686f756c642062652077697468696e2072616e67652e0000604482015290519081900360640190fd5b60008d1180156107fb5750650100000000008d105b1515610851576040805160e560020a62461bcd02815260206004820152601c60248201527f4d61736b2073686f756c642062652077697468696e2072616e67652e00000000604482015290519081900360640190fd5b438b10156108a9576040805160e560020a62461bcd02815260206004820152601360248201527f436f6d6d69742068617320657870697265642e00000000000000000000000000604482015290519081900360640190fd5b6108b68b8b8b8b8b6121ea565b151561090c576040805160e560020a62461bcd02815260206004820152601d60248201527f4543445341207369676e6174757265206973206e6f742076616c69642e000000604482015290519081900360640190fd5b60288c1161095f57603f7920000000001000000000080000000004000000000200000000018e027e01041041041041041041041041041041041041041041041041041041041041160693508c92506109ef565b60008d11801561096f57508b8d11155b15156109eb576040805160e560020a62461bcd02815260206004820152602e60248201527f48696768206d6f64756c6f2072616e67652c206265744d61736b206c6172676560448201527f72207468616e206d6f64756c6f2e000000000000000000000000000000000000606482015290519081900360840190fd5b8c93505b6109fa858d86612406565b60025491935091508501821115610a5b576040805160e560020a62461bcd02815260206004820152601a60248201527f6d617850726f666974206c696d69742076696f6c6174696f6e2e000000000000604482015290519081900360640190fd5b600480546001608060020a03608060020a808304821686018216810292821692909217808216850182166fffffffffffffffffffffffffffffffff19919091161792839055303183821692909304811691909101161115610b06576040805160e560020a62461bcd02815260206004820152601f60248201527f43616e6e6f74206166666f726420746f206c6f73652074686973206265742e00604482015290519081900360640190fd5b8486600001819055508b8660010160006101000a81548160ff021916908360ff160217905550838660010160016101000a81548160ff021916908360ff160217905550438660010160026101000a81548164ffffffffff021916908364ffffffffff160217905550828660010160076101000a81548164ffffffffff021916908364ffffffffff1602179055503386600101600c6101000a815481600160a060020a030219169083600160a060020a0316021790555085600101600c9054906101000a9004600160a060020a0316600160a060020a03167fab2115bac1de808eb7fe2be0309085b11f1f42b1eb980de8352efefdbfc098e28b88600001548960010160079054906101000a900464ffffffffff168a60010160009054906101000a900460ff16604051808581526020018481526020018364ffffffffff1681526020018260ff16815260200194505050505060405180910390a250505050505050505050505050565b600054600160a060020a031681565b60025481565b600054600160a060020a03163314610ce6576040805160e560020a62461bcd0281526020600482015260266024820152600080516020612646833981519152604482015260d160020a6537bbb732b91702606482015290519081900360840190fd5b3031811115610d64576040805160e560020a62461bcd028152602060048201526024808201527f496e63726561736520616d6f756e74206c6172676572207468616e2062616c6160448201527f6e63652e00000000000000000000000000000000000000000000000000000000606482015290519081900360840190fd5b60045430316001608060020a03808316608060020a90930481169290920190911682011115610ddd576040805160e560020a62461bcd02815260206004820152601160248201527f4e6f7420656e6f7567682066756e64732e000000000000000000000000000000604482015290519081900360640190fd5b610de882828361254e565b5050565b60065460009081908190600160a060020a03163314610e7b576040805160e560020a62461bcd02815260206004820152602c60248201527f4f6e6c7943726f7570696572206d6574686f64732063616c6c6564206279206e60448201527f6f6e2d63726f75706965722e0000000000000000000000000000000000000000606482015290519081900360840190fd5b84604051602001808281526020019150506040516020818303038152906040526040518082805190602001908083835b60208310610eca5780518252601f199092019160209182019101610eab565b51815160209384036101000a6000190180199092169116179052604080519290940182900390912060008181526005909252929020600181015492975095505062010000900464ffffffffff169250504382109050610f99576040805160e560020a62461bcd02815260206004820152603360248201527f736574746c6542657420696e207468652073616d6520626c6f636b206173207060448201527f6c6163654265742c206f72206265666f72652e00000000000000000000000000606482015290519081900360840190fd5b60fa810143111561101a576040805160e560020a62461bcd02815260206004820152602260248201527f426c6f636b686173682063616e2774206265207175657269656420627920455660448201527f4d2e000000000000000000000000000000000000000000000000000000000000606482015290519081900360840190fd5b8040841461102757600080fd5b611032828686611f49565b5050505050565b600154600160a060020a031633146110ad576040805160e560020a62461bcd02815260206004820152602660248201527f43616e206f6e6c792061636365707420707265617070726f766564206e657720604482015260d160020a6537bbb732b91702606482015290519081900360840190fd5b6001546000805473ffffffffffffffffffffffffffffffffffffffff1916600160a060020a03909216919091179055565b600054600160a060020a03163314611140576040805160e560020a62461bcd0281526020600482015260266024820152600080516020612646833981519152604482015260d160020a6537bbb732b91702606482015290519081900360840190fd5b600054600160a060020a03828116911614156111a6576040805160e560020a62461bcd02815260206004820152601d60248201527f43616e6e6f7420617070726f76652063757272656e74206f776e65722e000000604482015290519081900360640190fd5b6001805473ffffffffffffffffffffffffffffffffffffffff1916600160a060020a0392909216919091179055565b600054600160a060020a03163314611237576040805160e560020a62461bcd0281526020600482015260266024820152600080516020612646833981519152604482015260d160020a6537bbb732b91702606482015290519081900360840190fd5b30318111156112b5576040805160e560020a62461bcd028152602060048201526024808201527f496e63726561736520616d6f756e74206c6172676572207468616e2062616c6160448201527f6e63652e00000000000000000000000000000000000000000000000000000000606482015290519081900360840190fd5b60045430316001608060020a03808316608060020a9093048116929092019091168201111561132e576040805160e560020a62461bcd02815260206004820152601160248201527f4e6f7420656e6f7567682066756e64732e000000000000000000000000000000604482015290519081900360640190fd5b600480546fffffffffffffffffffffffffffffffff1981166001608060020a039182169390930116919091179055565b600054600160a060020a031633146113c0576040805160e560020a62461bcd0281526020600482015260266024820152600080516020612646833981519152604482015260d160020a6537bbb732b91702606482015290519081900360840190fd5b6003805473ffffffffffffffffffffffffffffffffffffffff1916600160a060020a0392909216919091179055565b600454608060020a90046001608060020a031681565b60008181526005602052604081208054909180821515611495576040805160e560020a62461bcd02815260206004820152602260248201527f4265742073686f756c6420626520696e20616e2027616374697665272073746160448201527f7465000000000000000000000000000000000000000000000000000000000000606482015290519081900360840190fd5b600184015464ffffffffff620100009091041660fa014311611527576040805160e560020a62461bcd02815260206004820152602260248201527f426c6f636b686173682063616e2774206265207175657269656420627920455660448201527f4d2e000000000000000000000000000000000000000000000000000000000000606482015290519081900360840190fd5b60008455600184015461154790849060ff80821691610100900416612406565b600480546001608060020a03608060020a8083048216869003821602918116919091178082168490039091166fffffffffffffffffffffffffffffffff19919091161790556001860154919350915061103290600160a060020a036c0100000000000000000000000090910416848061254e565b600054600160a060020a0316331461161d576040805160e560020a62461bcd0281526020600482015260266024820152600080516020612646833981519152604482015260d160020a6537bbb732b91702606482015290519081900360840190fd5b6006805473ffffffffffffffffffffffffffffffffffffffff1916600160a060020a0392909216919091179055565b600054600160a060020a031633146116ae576040805160e560020a62461bcd0281526020600482015260266024820152600080516020612646833981519152604482015260d160020a6537bbb732b91702606482015290519081900360840190fd5b693f870857a3e0e38000008110611735576040805160e560020a62461bcd02815260206004820152602260248201527f6d617850726f6669742073686f756c6420626520612073616e65206e756d626560448201527f722e000000000000000000000000000000000000000000000000000000000000606482015290519081900360840190fd5b600255565b8035600090811a9080808080808080808060f78b10156117ca576040805160e560020a62461bcd02815260206004820152602260248201527f52656365697074206c656166206c6f6e676572207468616e203535206279746560448201527f732e000000000000000000000000000000000000000000000000000000000000606482015290519081900360840190fd5b9a8a0160f519019a8b3560001a9950607f8a116117ec5760018c019b5061185d565b60808a101580156117fe575060b78a11155b1515611854576040805160e560020a62461bcd02815260206004820152601660248201527f5061746820697320616e20524c5020737472696e672e00000000000000000000604482015290519081900360640190fd5b9a8901607e19019a5b8b3560001a985060b98914611909576040805160e560020a62461bcd028152602060048201526044602482018190527f5265636569707420737472696e6720697320616c77617973206174206c656173908201527f7420323536206279746573206c6f6e672c20627574206c657373207468616e2060648201527f36346b2e00000000000000000000000000000000000000000000000000000000608482015290519081900360a40190fd5b60039b909b019a8b3560001a975060f98814611995576040805160e560020a62461bcd02815260206004820152603d60248201527f5265636569707420697320616c77617973206174206c6561737420323536206260448201527f79746573206c6f6e672c20627574206c657373207468616e2036346b2e000000606482015290519081900360840190fd5b60039b909b019a8b3560001a9650600187146119fb576040805160e560020a62461bcd02815260206004820152601960248201527f5374617475732073686f756c6420626520737563636573732e00000000000000604482015290519081900360640190fd5b60019b909b019a8b3560001a9550607f8611611a1c5760018c019b50611a8d565b60808610158015611a2e575060b78611155b1515611a84576040805160e560020a62461bcd02815260206004820181905260248201527f43756d756c61746976652067617320697320616e20524c5020737472696e672e604482015290519081900360640190fd5b9a8501607e19019a5b8b3560001a945060b98514611b12576040805160e560020a62461bcd02815260206004820152602660248201527f426c6f6f6d2066696c74657220697320616c776179732032353620627974657360448201527f206c6f6e672e0000000000000000000000000000000000000000000000000000606482015290519081900360840190fd5b6101039b909b019a8b3560001a935060f88414611b9f576040805160e560020a62461bcd02815260206004820152602660248201527f4c6f6773206c697374206973206c657373207468616e2032353620627974657360448201527f206c6f6e672e0000000000000000000000000000000000000000000000000000606482015290519081900360840190fd5b60029b909b019a8b3560001a925060f88314611c2b576040805160e560020a62461bcd02815260206004820152602660248201527f4c6f6720656e747279206973206c657373207468616e2032353620627974657360448201527f206c6f6e672e0000000000000000000000000000000000000000000000000000606482015290519081900360840190fd5b60029b909b019a8b3560001a915060948214611c91576040805160e560020a62461bcd02815260206004820152601960248201527f41646472657373206973203230206279746573206c6f6e672e00000000000000604482015290519081900360640190fd5b50600a198b0135600160a060020a0316308114611cad57600080fd5b505050505050505050505050565b6040516000908190818080808080805b601d198b013561ffff169550851515611ce357611dc7565b601b198b013561ffff16945060208501861015611d4a576040805160e560020a62461bcd02815260206004820152601360248201527f536869667420626f756e647320636865636b2e00000000000000000000000000604482015290519081900360640190fd5b60048b81019b8601013593508315611dac576040805160e560020a62461bcd02815260206004820152601460248201527f4e6f6e2d656d707479206861736820736c6f742e000000000000000000000000604482015290519081900360640190fd5b858b89378b858901528588209b50859650858b019a50611ccb565b508a9750505083850161ffff601b198a01358116906019198b013516808701821015611e3d576040805160e560020a62461bcd02815260206004820152601360248201527f536869667420626f756e647320636865636b2e00000000000000000000000000604482015290519081900360640190fd5b60068b019a50818b8437611e548184018989612601565b8183209b509981019961ffff601d198c013581169650601b198c013516945060208501861015611ece576040805160e560020a62461bcd02815260206004820152601360248201527f536869667420626f756e647320636865636b2e00000000000000000000000000604482015290519081900360640190fd5b60048b81019b8601013593508315611f30576040805160e560020a62461bcd02815260206004820152601460248201527f4e6f6e2d656d707479206861736820736c6f742e000000000000000000000000604482015290519081900360640190fd5b858b893750505050830196909652509390932093915050565b8254600184015460ff808216916101008104909116906c010000000000000000000000009004600160a060020a031660008080808080808a1515611ffd576040805160e560020a62461bcd02815260206004820152602260248201527f4265742073686f756c6420626520696e20616e2027616374697665272073746160448201527f7465000000000000000000000000000000000000000000000000000000000000606482015290519081900360840190fd5b60008e600001819055508c8c604051602001808381526020018260001916600019168152602001925050506040516020818303038152906040526040518082805190602001908083835b602083106120665780518252601f199092019160209182019101612047565b5181516020939093036101000a6000190180199091169216919091179052604051920182900390912099508c9250899150508115156120a157fe5b0695506120af8b8b8b612406565b90955093506000925082915060288a116120ef5760018e0154600287900a6701000000000000009091041664ffffffffff16156120ea578492505b6120fb565b888610156120fb578492505b600480546001608060020a03608060020a8083048216899003821602911617905567016345785d8a00008b10612174576103e88a8881151561213957fe5b0481151561214357fe5b06905080151561217457600480546fffffffffffffffffffffffffffffffff1981169091556001608060020a031691505b60008211156121bd57604080518381529051600160a060020a038a16917fc388db0e8aa560a59633c094a0d0aa21322cd6234836fd5bac00fc5ae63b5783919081900360200190a25b6121da88848401156121d1578385016121d4565b60015b8561254e565b5050505050505050505050505050565b604080518082018252601c81527f19457468657265756d205369676e6564204d6573736167653a0a33320000000060208083019190915282517b0100000000000000000000000000000000000000000000000000000064ffffffffff8a1602818301526025808201899052845180830390910181526045909101938490528051600094859384939282918401908083835b6020831061229a5780518252601f19909201916020918201910161227b565b6001836020036101000a0380198251168184511680821785525050505050509050019150506040518091039020915082826040516020018083805190602001908083835b602083106122fd5780518252601f1990920191602091820191016122de565b51815160209384036101000a600019018019909216911617905292019384525060408051808503815293820190819052835193945092839250908401908083835b6020831061235d5780518252601f19909201916020918201910161233e565b51815160209384036101000a600019018019909216911617905260408051929094018290038220600080845283830180875282905260ff8f1684870152606084018e9052608084018d905294519097506001965060a080840196509194601f19820194509281900390910191865af11580156123dd573d6000803e3d6000fd5b5050604051601f190151600354600160a060020a039182169116149a9950505050505050505050565b600080600083600010801561241b5750848411155b1515612471576040805160e560020a62461bcd02815260206004820152601d60248201527f57696e2070726f626162696c697479206f7574206f662072616e67652e000000604482015290519081900360640190fd5b67016345785d8a0000861015612488576000612491565b66038d7ea4c680005b91505060648504660110d9316ec0008110156124b15750660110d9316ec0005b808201861015612531576040805160e560020a62461bcd02815260206004820152602260248201527f42657420646f65736e2774206576656e20636f76657220686f7573652065646760448201527f652e000000000000000000000000000000000000000000000000000000000000606482015290519081900360840190fd5b838583838903030281151561254257fe5b04925050935093915050565b604051600160a060020a0384169083156108fc029084906000818181858888f19350505050156125bc57604080518281529051600160a060020a038516917fd4f43975feb89f48dd30cabbb32011045be187d1e11c8ea9faa43efc35282519919081900360200190a26125fc565b604080518381529051600160a060020a038516917fac464fe4d3a86b9121261ac0a01dd981bfe0777c7c9d9c8f4473d31a9c0f9d2d919081900360200190a25b505050565b60005b60208210612626578251845260209384019390920191601f1990910190612604565b50905182516020929092036101000a600019018019909116911617905256004f6e6c794f776e6572206d6574686f64732063616c6c6564206279206e6f6e2da165627a7a7230582054dfb51f748f4da409301d0f931818354d0bfb9752e3d613f95fd23eadad075b0029",
  "source": "pragma solidity 0.4.24;\n\n// * dice2.win - fair games that pay Ether. Version 5.\n//\n// * Ethereum smart contract, deployed at 0xD1CEeeeee83F8bCF3BEDad437202b6154E9F5405.\n//\n// * Uses hybrid commit-reveal + block hash random number generation that is immune\n//   to tampering by players, house and miners. Apart from being fully transparent,\n//   this also allows arbitrarily high bets.\n//\n// * Refer to https://dice2.win/whitepaper.pdf for detailed description and proofs.\n\ncontract Dice {\n    /// *** Constants section\n\n    // Each bet is deducted 1% in favour of the house, but no less than some minimum.\n    // The lower bound is dictated by gas costs of the settleBet transaction, providing\n    // headroom for up to 10 Gwei prices.\n    uint constant HOUSE_EDGE_PERCENT = 1;\n    uint constant HOUSE_EDGE_MINIMUM_AMOUNT = 0.0003 ether;\n\n    // Bets lower than this amount do not participate in jackpot rolls (and are\n    // not deducted JACKPOT_FEE).\n    uint constant MIN_JACKPOT_BET = 0.1 ether;\n\n    // Chance to win jackpot (currently 0.1%) and fee deducted into jackpot fund.\n    uint constant JACKPOT_MODULO = 1000;\n    uint constant JACKPOT_FEE = 0.001 ether;\n\n    // There is minimum and maximum bets.\n    uint constant MIN_BET = 0.01 ether;\n    uint constant MAX_AMOUNT = 300000 ether;\n\n    // Modulo is a number of equiprobable outcomes in a game:\n    //  - 2 for coin flip\n    //  - 6 for dice\n    //  - 6*6 = 36 for double dice\n    //  - 100 for etheroll\n    //  - 37 for roulette\n    //  etc.\n    // It's called so because 256-bit entropy is treated like a huge integer and\n    // the remainder of its division by modulo is considered bet outcome.\n    uint constant MAX_MODULO = 100;\n\n    // For modulos below this threshold rolls are checked against a bit mask,\n    // thus allowing betting on any combination of outcomes. For example, given\n    // modulo 6 for dice, 101000 mask (base-2, big endian) means betting on\n    // 4 and 6; for games with modulos higher than threshold (Etheroll), a simple\n    // limit is used, allowing betting on any outcome in [0, N) range.\n    //\n    // The specific value is dictated by the fact that 256-bit intermediate\n    // multiplication result allows implementing population count efficiently\n    // for numbers that are up to 42 bits, and 40 is the highest multiple of\n    // eight below 42.\n    uint constant MAX_MASK_MODULO = 40;\n\n    // This is a check on bet mask overflow.\n    uint constant MAX_BET_MASK = 2 ** MAX_MASK_MODULO;\n\n    // EVM BLOCKHASH opcode can query no further than 256 blocks into the\n    // past. Given that settleBet uses block hash of placeBet as one of\n    // complementary entropy sources, we cannot process bets older than this\n    // threshold. On rare occasions dice2.win croupier may fail to invoke\n    // settleBet in this timespan due to technical issues or extreme Ethereum\n    // congestion; such bets can be refunded via invoking refundBet.\n    uint constant BET_EXPIRATION_BLOCKS = 250;\n\n    // Some deliberately invalid address to initialize the secret signer with.\n    // Forces maintainers to invoke setSecretSigner before processing any bets.\n    address constant DUMMY_ADDRESS = 0xEeeeeEeeeEeEeeEeEeEeeEEEeeeeEeeeeeeeEEeE;\n\n    // Standard contract ownership transfer.\n    address public owner;\n    address private nextOwner;\n\n    // Adjustable max bet profit. Used to cap bets against dynamic odds.\n    uint public maxProfit;\n\n    // The address corresponding to a private key used to sign placeBet commits.\n    address public secretSigner;\n\n    // Accumulated jackpot fund.\n    uint128 public jackpotSize;\n\n    // Funds that are locked in potentially winning bets. Prevents contract from\n    // committing to bets it cannot pay out.\n    uint128 public lockedInBets;\n\n    // A structure representing a single bet.\n    struct Bet {\n        // Wager amount in wei.\n        uint amount;\n        // Modulo of a game.\n        uint8 modulo;\n        // Number of winning outcomes, used to compute winning payment (* modulo/rollUnder),\n        // and used instead of mask for games with modulo > MAX_MASK_MODULO.\n        uint8 rollUnder;\n        // Block number of placeBet tx.\n        uint40 placeBlockNumber;\n        // Bit mask representing winning bet outcomes (see MAX_MASK_MODULO comment).\n        uint40 mask;\n        // Address of a gambler, used to pay out winning bets.\n        address gambler;\n    }\n\n    // Mapping from commits to all currently active & processed bets.\n    mapping (uint => Bet) bets;\n\n    // Croupier account.\n    address public croupier;\n\n    // Events that are issued to make statistic recovery easier.\n    event FailedPayment(address indexed beneficiary, uint amount);\n    event Payment(address indexed beneficiary, uint amount);\n    event JackpotPayment(address indexed beneficiary, uint amount);\n\n    // This event is emitted in placeBet to record commit in the logs.\n    event BetPlaced(\n        uint commit,\n        address indexed gambler,\n        uint amount,\n        uint betMask,\n        uint modulo\n    );\n\n    // Constructor. Deliberately does not take any parameters.\n    constructor () public {\n        owner = msg.sender;\n        secretSigner = DUMMY_ADDRESS;\n        croupier = DUMMY_ADDRESS;\n    }\n\n    // Standard modifier on methods invokable only by contract owner.\n    modifier onlyOwner {\n        require (msg.sender == owner, \"OnlyOwner methods called by non-owner.\");\n        _;\n    }\n\n    // Standard modifier on methods invokable only by contract owner.\n    modifier onlyCroupier {\n        require (msg.sender == croupier, \"OnlyCroupier methods called by non-croupier.\");\n        _;\n    }\n\n    // Standard contract ownership transfer implementation,\n    function approveNextOwner(address _nextOwner) external onlyOwner {\n        require (_nextOwner != owner, \"Cannot approve current owner.\");\n        nextOwner = _nextOwner;\n    }\n\n    function acceptNextOwner() external {\n        require (msg.sender == nextOwner, \"Can only accept preapproved new owner.\");\n        owner = nextOwner;\n    }\n\n    // Fallback function deliberately left empty. It's primary use case\n    // is to top up the bank roll.\n    function () public payable {\n    }\n\n    // See comment for \"secretSigner\" variable.\n    function setSecretSigner(address newSecretSigner) external onlyOwner {\n        secretSigner = newSecretSigner;\n    }\n\n    // Change the croupier address.\n    function setCroupier(address newCroupier) external onlyOwner {\n        croupier = newCroupier;\n    }\n\n    // Change max bet reward. Setting this to zero effectively disables betting.\n    function setMaxProfit(uint _maxProfit) public onlyOwner {\n        require (_maxProfit < MAX_AMOUNT, \"maxProfit should be a sane number.\");\n        maxProfit = _maxProfit;\n    }\n\n    // This function is used to bump up the jackpot fund. Cannot be used to lower it.\n    function increaseJackpot(uint increaseAmount) external onlyOwner {\n        require (increaseAmount <= address(this).balance, \"Increase amount larger than balance.\");\n        require (jackpotSize + lockedInBets + increaseAmount <= address(this).balance, \"Not enough funds.\");\n        jackpotSize += uint128(increaseAmount);\n    }\n\n    // Funds withdrawal to cover costs of dice2.win operation.\n    function withdrawFunds(address beneficiary, uint withdrawAmount) external onlyOwner {\n        require (withdrawAmount <= address(this).balance, \"Increase amount larger than balance.\");\n        require (jackpotSize + lockedInBets + withdrawAmount <= address(this).balance, \"Not enough funds.\");\n        sendFunds(beneficiary, withdrawAmount, withdrawAmount);\n    }\n\n    // Contract may be destroyed only when there are no ongoing bets,\n    // either settled or refunded. All funds are transferred to contract owner.\n    function kill() external onlyOwner {\n        require (lockedInBets == 0, \"All bets should be processed (settled or refunded) before self-destruct.\");\n        selfdestruct(owner);\n    }\n\n    // Verify signature of provided data\n    function verifySignature(uint commitLastBlock, uint commit, uint8 v, bytes32 r, bytes32 s) private view returns (bool) {\n        bytes memory prefix = \"\\x19Ethereum Signed Message:\\n32\";\n        bytes32 hash = keccak256(abi.encodePacked(uint40(commitLastBlock), commit));\n        bytes32 signatureHash = keccak256(abi.encodePacked(prefix, hash));\n\n        return secretSigner == ecrecover(signatureHash, v, r, s);\n    }\n\n    /// *** Betting logic\n\n    // Bet states:\n    //  amount == 0 && gambler == 0 - 'clean' (can place a bet)\n    //  amount != 0 && gambler != 0 - 'active' (can be settled or refunded)\n    //  amount == 0 && gambler != 0 - 'processed' (can clean storage)\n    //\n    //  NOTE: Storage cleaning is not implemented in this contract version; it will be added\n    //        with the next upgrade to prevent polluting Ethereum state with expired bets.\n\n    // Bet placing transaction - issued by the player.\n    //  betMask         - bet outcomes bit mask for modulo <= MAX_MASK_MODULO,\n    //                    [0, betMask) for larger modulos.\n    //  modulo          - game modulo.\n    //  commitLastBlock - number of the maximum block where \"commit\" is still considered valid.\n    //  commit          - Keccak256 hash of some secret \"reveal\" random number, to be supplied\n    //                    by the dice2.win croupier bot in the settleBet transaction. Supplying\n    //                    \"commit\" ensures that \"reveal\" cannot be changed behind the scenes\n    //                    after placeBet have been mined.\n    //  r, s            - components of ECDSA signature of (commitLastBlock, commit). v is\n    //                    guaranteed to always equal 27.\n    //\n    // Commit, being essentially random 256-bit number, is used as a unique bet identifier in\n    // the 'bets' mapping.\n    //\n    // Commits are signed with a block limit to ensure that they are used at most once - otherwise\n    // it would be possible for a miner to place a bet with a known commit/reveal pair and tamper\n    // with the blockhash. Croupier guarantees that commitLastBlock will always be not greater than\n    // placeBet block number plus BET_EXPIRATION_BLOCKS. See whitepaper for details.\n    function placeBet(uint betMask, uint modulo, uint commitLastBlock, uint commit, uint8 v, bytes32 r, bytes32 s) external payable {\n        // Check that the bet is in 'clean' state.\n        Bet storage bet = bets[commit];\n        require (bet.gambler == address(0), \"Bet should be in a 'clean' state.\");\n\n        // Validate input data ranges.\n        uint amount = msg.value;\n        require (modulo > 1 && modulo <= MAX_MODULO, \"Modulo should be within range.\");\n        require (amount >= MIN_BET && amount <= MAX_AMOUNT, \"Amount should be within range.\");\n        require (betMask > 0 && betMask < MAX_BET_MASK, \"Mask should be within range.\");\n\n        // Check that commit is valid - it has not expired and its signature is valid.\n        require (block.number <= commitLastBlock, \"Commit has expired.\");\n        require (verifySignature(commitLastBlock, commit, v, r, s), \"ECDSA signature is not valid.\");\n\n        uint rollUnder;\n        uint mask;\n\n        if (modulo <= MAX_MASK_MODULO) {\n            // Small modulo games specify bet outcomes via bit mask.\n            // rollUnder is a number of 1 bits in this mask (population count).\n            // This magic looking formula is an efficient way to compute population\n            // count on EVM for numbers below 2**40. For detailed proof consult\n            // the dice2.win whitepaper.\n            rollUnder = ((betMask * POPCNT_MULT) & POPCNT_MASK) % POPCNT_MODULO;\n            mask = betMask;\n        } else {\n            // Larger modulos specify the right edge of half-open interval of\n            // winning bet outcomes.\n            require (betMask > 0 && betMask <= modulo, \"High modulo range, betMask larger than modulo.\");\n            rollUnder = betMask;\n        }\n\n        // Winning amount and jackpot increase.\n        uint possibleWinAmount;\n        uint jackpotFee;\n\n        (possibleWinAmount, jackpotFee) = getDiceWinAmount(amount, modulo, rollUnder);\n\n        // Enforce max profit limit.\n        require (possibleWinAmount <= amount + maxProfit, \"maxProfit limit violation.\");\n\n        // Lock funds.\n        lockedInBets += uint128(possibleWinAmount);\n        jackpotSize += uint128(jackpotFee);\n\n        // Check whether contract has enough funds to process this bet.\n        require (jackpotSize + lockedInBets <= address(this).balance, \"Cannot afford to lose this bet.\");\n\n        // Store bet parameters on blockchain.\n        bet.amount = amount;\n        bet.modulo = uint8(modulo);\n        bet.rollUnder = uint8(rollUnder);\n        bet.placeBlockNumber = uint40(block.number);\n        bet.mask = uint40(mask);\n        bet.gambler = msg.sender;\n\n        // Record bet in logs.\n        emit BetPlaced(commit, bet.gambler, bet.amount, bet.mask, bet.modulo);\n    }\n\n    // This is the method used to settle 99% of bets. To process a bet with a specific\n    // \"commit\", settleBet should supply a \"reveal\" number that would Keccak256-hash to\n    // \"commit\". \"blockHash\" is the block hash of placeBet block as seen by croupier; it\n    // is additionally asserted to prevent changing the bet outcomes on Ethereum reorgs.\n    function settleBet(uint reveal, bytes32 blockHash) external onlyCroupier {\n        uint commit = uint(keccak256(abi.encodePacked(reveal)));\n\n        Bet storage bet = bets[commit];\n        uint placeBlockNumber = bet.placeBlockNumber;\n\n        // Check that bet has not expired yet (see comment to BET_EXPIRATION_BLOCKS).\n        require (block.number > placeBlockNumber, \"settleBet in the same block as placeBet, or before.\");\n        require (block.number <= placeBlockNumber + BET_EXPIRATION_BLOCKS, \"Blockhash can't be queried by EVM.\");\n        require (blockhash(placeBlockNumber) == blockHash);\n\n        // Settle bet using reveal and blockHash as entropy sources.\n        settleBetCommon(bet, reveal, blockHash);\n    }\n\n    // This method is used to settle a bet that was mined into an uncle block. At this\n    // point the player was shown some bet outcome, but the blockhash at placeBet height\n    // is different because of Ethereum chain reorg. We supply a full merkle proof of the\n    // placeBet transaction receipt to provide untamperable evidence that uncle block hash\n    // indeed was present on-chain at some point.\n    function settleBetUncleMerkleProof(uint reveal, uint40 canonicalBlockNumber) external onlyCroupier {\n        // \"commit\" for bet settlement can only be obtained by hashing a \"reveal\".\n        uint commit = uint(keccak256(abi.encodePacked(reveal)));\n\n        Bet storage bet = bets[commit];\n\n        // Check that canonical block hash can still be verified.\n        require (block.number <= canonicalBlockNumber + BET_EXPIRATION_BLOCKS, \"Blockhash can't be queried by EVM.\");\n\n        // Verify placeBet receipt.\n        requireCorrectReceipt(4 + 32 + 32 + 4);\n\n        // Reconstruct canonical & uncle block hashes from a receipt merkle proof, verify them.\n        bytes32 canonicalHash;\n        bytes32 uncleHash;\n        (canonicalHash, uncleHash) = verifyMerkleProof(commit, 4 + 32 + 32);\n        require (blockhash(canonicalBlockNumber) == canonicalHash);\n\n        // Settle bet using reveal and uncleHash as entropy sources.\n        settleBetCommon(bet, reveal, uncleHash);\n    }\n\n    // Common settlement code for settleBet & settleBetUncleMerkleProof.\n    function settleBetCommon(Bet storage bet, uint reveal, bytes32 entropyBlockHash) private {\n        // Fetch bet parameters into local variables (to save gas).\n        uint amount = bet.amount;\n        uint modulo = bet.modulo;\n        uint rollUnder = bet.rollUnder;\n        address gambler = bet.gambler;\n\n        // Check that bet is in 'active' state.\n        require (amount != 0, \"Bet should be in an 'active' state\");\n\n        // Move bet into 'processed' state already.\n        bet.amount = 0;\n\n        // The RNG - combine \"reveal\" and blockhash of placeBet using Keccak256. Miners\n        // are not aware of \"reveal\" and cannot deduce it from \"commit\" (as Keccak256\n        // preimage is intractable), and house is unable to alter the \"reveal\" after\n        // placeBet have been mined (as Keccak256 collision finding is also intractable).\n        bytes32 entropy = keccak256(abi.encodePacked(reveal, entropyBlockHash));\n\n        // Do a roll by taking a modulo of entropy. Compute winning amount.\n        uint dice = uint(entropy) % modulo;\n\n        uint diceWinAmount;\n        uint _jackpotFee;\n        (diceWinAmount, _jackpotFee) = getDiceWinAmount(amount, modulo, rollUnder);\n\n        uint diceWin = 0;\n        uint jackpotWin = 0;\n\n        // Determine dice outcome.\n        if (modulo <= MAX_MASK_MODULO) {\n            // For small modulo games, check the outcome against a bit mask.\n            if ((2 ** dice) & bet.mask != 0) {\n                diceWin = diceWinAmount;\n            }\n\n        } else {\n            // For larger modulos, check inclusion into half-open interval.\n            if (dice < rollUnder) {\n                diceWin = diceWinAmount;\n            }\n\n        }\n\n        // Unlock the bet amount, regardless of the outcome.\n        lockedInBets -= uint128(diceWinAmount);\n\n        // Roll for a jackpot (if eligible).\n        if (amount >= MIN_JACKPOT_BET) {\n            // The second modulo, statistically independent from the \"main\" dice roll.\n            // Effectively you are playing two games at once!\n            uint jackpotRng = (uint(entropy) / modulo) % JACKPOT_MODULO;\n\n            // Bingo!\n            if (jackpotRng == 0) {\n                jackpotWin = jackpotSize;\n                jackpotSize = 0;\n            }\n        }\n\n        // Log jackpot win.\n        if (jackpotWin > 0) {\n            emit JackpotPayment(gambler, jackpotWin);\n        }\n\n        // Send the funds to gambler.\n        sendFunds(gambler, diceWin + jackpotWin == 0 ? 1 wei : diceWin + jackpotWin, diceWin);\n    }\n\n    // Refund transaction - return the bet amount of a roll that was not processed in a\n    // due timeframe. Processing such blocks is not possible due to EVM limitations (see\n    // BET_EXPIRATION_BLOCKS comment above for details). In case you ever find yourself\n    // in a situation like this, just contact the dice2.win support, however nothing\n    // precludes you from invoking this method yourself.\n    function refundBet(uint commit) external {\n        // Check that bet is in 'active' state.\n        Bet storage bet = bets[commit];\n        uint amount = bet.amount;\n\n        require (amount != 0, \"Bet should be in an 'active' state\");\n\n        // Check that bet has already expired.\n        require (block.number > bet.placeBlockNumber + BET_EXPIRATION_BLOCKS, \"Blockhash can't be queried by EVM.\");\n\n        // Move bet into 'processed' state, release funds.\n        bet.amount = 0;\n\n        uint diceWinAmount;\n        uint jackpotFee;\n        (diceWinAmount, jackpotFee) = getDiceWinAmount(amount, bet.modulo, bet.rollUnder);\n\n        lockedInBets -= uint128(diceWinAmount);\n        jackpotSize -= uint128(jackpotFee);\n\n        // Send the refund.\n        sendFunds(bet.gambler, amount, amount);\n    }\n\n    // Get the expected win amount after house edge is subtracted.\n    function getDiceWinAmount(uint amount, uint modulo, uint rollUnder) private pure returns (uint winAmount, uint jackpotFee) {\n        require (0 < rollUnder && rollUnder <= modulo, \"Win probability out of range.\");\n\n        jackpotFee = amount >= MIN_JACKPOT_BET ? JACKPOT_FEE : 0;\n\n        uint houseEdge = amount * HOUSE_EDGE_PERCENT / 100;\n\n        if (houseEdge < HOUSE_EDGE_MINIMUM_AMOUNT) {\n            houseEdge = HOUSE_EDGE_MINIMUM_AMOUNT;\n        }\n\n        require (houseEdge + jackpotFee <= amount, \"Bet doesn't even cover house edge.\");\n        winAmount = (amount - houseEdge - jackpotFee) * modulo / rollUnder;\n    }\n\n    // Helper routine to process the payment.\n    function sendFunds(address beneficiary, uint amount, uint successLogAmount) private {\n        if (beneficiary.send(amount)) {\n            emit Payment(beneficiary, successLogAmount);\n        } else {\n            emit FailedPayment(beneficiary, amount);\n        }\n    }\n\n    // This are some constants making O(1) population count in placeBet possible.\n    // See whitepaper for intuition and proofs behind it.\n    uint constant POPCNT_MULT = 0x0000000000002000000000100000000008000000000400000000020000000001;\n    uint constant POPCNT_MASK = 0x0001041041041041041041041041041041041041041041041041041041041041;\n    uint constant POPCNT_MODULO = 0x3F;\n\n    // *** Merkle proofs.\n\n    // This helpers are used to verify cryptographic proofs of placeBet inclusion into\n    // uncle blocks. They are used to prevent bet outcome changing on Ethereum reorgs without\n    // compromising the security of the smart contract. Proof data is appended to the input data\n    // in a simple prefix length format and does not adhere to the ABI.\n    // Invariants checked:\n    //  - receipt trie entry contains a (1) successful transaction (2) directed at this smart\n    //    contract (3) containing commit as a payload.\n    //  - receipt trie entry is a part of a valid merkle proof of a block header\n    //  - the block header is a part of uncle list of some block on canonical chain\n    // The implementation is optimized for gas cost and relies on the specifics of Ethereum internal data structures.\n    // Read the whitepaper for details.\n\n    // Helper to verify a full merkle proof starting from some seedHash (usually commit). \"offset\" is the location of the proof\n    // beginning in the calldata.\n    function verifyMerkleProof(uint seedHash, uint offset) pure private returns (bytes32 blockHash, bytes32 uncleHash) {\n        // (Safe) assumption - nobody will write into RAM during this method invocation.\n        uint scratchBuf1;  assembly { scratchBuf1 := mload(0x40) }\n\n        uint uncleHeaderLength; uint blobLength; uint shift; uint hashSlot;\n\n        // Verify merkle proofs up to uncle block header. Calldata layout is:\n        //  - 2 byte big-endian slice length\n        //  - 2 byte big-endian offset to the beginning of previous slice hash within the current slice (should be zeroed)\n        //  - followed by the current slice verbatim\n        for (;; offset += blobLength) {\n            assembly { blobLength := and(calldataload(sub(offset, 30)), 0xffff) }\n            if (blobLength == 0) {\n                // Zero slice length marks the end of uncle proof.\n                break;\n            }\n\n            assembly { shift := and(calldataload(sub(offset, 28)), 0xffff) }\n            require (shift + 32 <= blobLength, \"Shift bounds check.\");\n\n            offset += 4;\n            assembly { hashSlot := calldataload(add(offset, shift)) }\n            require (hashSlot == 0, \"Non-empty hash slot.\");\n\n            assembly {\n                calldatacopy(scratchBuf1, offset, blobLength)\n                mstore(add(scratchBuf1, shift), seedHash)\n                seedHash := sha3(scratchBuf1, blobLength)\n                uncleHeaderLength := blobLength\n            }\n        }\n\n        // At this moment the uncle hash is known.\n        uncleHash = bytes32(seedHash);\n\n        // Construct the uncle list of a canonical block.\n        uint scratchBuf2 = scratchBuf1 + uncleHeaderLength;\n        uint unclesLength; assembly { unclesLength := and(calldataload(sub(offset, 28)), 0xffff) }\n        uint unclesShift;  assembly { unclesShift := and(calldataload(sub(offset, 26)), 0xffff) }\n        require (unclesShift + uncleHeaderLength <= unclesLength, \"Shift bounds check.\");\n\n        offset += 6;\n        assembly { calldatacopy(scratchBuf2, offset, unclesLength) }\n        memcpy(scratchBuf2 + unclesShift, scratchBuf1, uncleHeaderLength);\n\n        assembly { seedHash := sha3(scratchBuf2, unclesLength) }\n\n        offset += unclesLength;\n\n        // Verify the canonical block header using the computed sha3Uncles.\n        assembly {\n            blobLength := and(calldataload(sub(offset, 30)), 0xffff)\n            shift := and(calldataload(sub(offset, 28)), 0xffff)\n        }\n        require (shift + 32 <= blobLength, \"Shift bounds check.\");\n\n        offset += 4;\n        assembly { hashSlot := calldataload(add(offset, shift)) }\n        require (hashSlot == 0, \"Non-empty hash slot.\");\n\n        assembly {\n            calldatacopy(scratchBuf1, offset, blobLength)\n            mstore(add(scratchBuf1, shift), seedHash)\n\n            // At this moment the canonical block hash is known.\n            blockHash := sha3(scratchBuf1, blobLength)\n        }\n    }\n\n    // Helper to check the placeBet receipt. \"offset\" is the location of the proof beginning in the calldata.\n    // RLP layout: [triePath, str([status, cumGasUsed, bloomFilter, [[address, [topics], data]])]\n    function requireCorrectReceipt(uint offset) view private {\n        uint leafHeaderByte; assembly { leafHeaderByte := byte(0, calldataload(offset)) }\n\n        require (leafHeaderByte >= 0xf7, \"Receipt leaf longer than 55 bytes.\");\n        offset += leafHeaderByte - 0xf6;\n\n        uint pathHeaderByte; assembly { pathHeaderByte := byte(0, calldataload(offset)) }\n\n        if (pathHeaderByte <= 0x7f) {\n            offset += 1;\n\n        } else {\n            require (pathHeaderByte >= 0x80 && pathHeaderByte <= 0xb7, \"Path is an RLP string.\");\n            offset += pathHeaderByte - 0x7f;\n        }\n\n        uint receiptStringHeaderByte; assembly { receiptStringHeaderByte := byte(0, calldataload(offset)) }\n        require (receiptStringHeaderByte == 0xb9, \"Receipt string is always at least 256 bytes long, but less than 64k.\");\n        offset += 3;\n\n        uint receiptHeaderByte; assembly { receiptHeaderByte := byte(0, calldataload(offset)) }\n        require (receiptHeaderByte == 0xf9, \"Receipt is always at least 256 bytes long, but less than 64k.\");\n        offset += 3;\n\n        uint statusByte; assembly { statusByte := byte(0, calldataload(offset)) }\n        require (statusByte == 0x1, \"Status should be success.\");\n        offset += 1;\n\n        uint cumGasHeaderByte; assembly { cumGasHeaderByte := byte(0, calldataload(offset)) }\n        if (cumGasHeaderByte <= 0x7f) {\n            offset += 1;\n\n        } else {\n            require (cumGasHeaderByte >= 0x80 && cumGasHeaderByte <= 0xb7, \"Cumulative gas is an RLP string.\");\n            offset += cumGasHeaderByte - 0x7f;\n        }\n\n        uint bloomHeaderByte; assembly { bloomHeaderByte := byte(0, calldataload(offset)) }\n        require (bloomHeaderByte == 0xb9, \"Bloom filter is always 256 bytes long.\");\n        offset += 256 + 3;\n\n        uint logsListHeaderByte; assembly { logsListHeaderByte := byte(0, calldataload(offset)) }\n        require (logsListHeaderByte == 0xf8, \"Logs list is less than 256 bytes long.\");\n        offset += 2;\n\n        uint logEntryHeaderByte; assembly { logEntryHeaderByte := byte(0, calldataload(offset)) }\n        require (logEntryHeaderByte == 0xf8, \"Log entry is less than 256 bytes long.\");\n        offset += 2;\n\n        uint addressHeaderByte; assembly { addressHeaderByte := byte(0, calldataload(offset)) }\n        require (addressHeaderByte == 0x94, \"Address is 20 bytes long.\");\n\n        uint logAddress; assembly { logAddress := and(calldataload(sub(offset, 11)), 0xffffffffffffffffffffffffffffffffffffffff) }\n        require (logAddress == uint(address(this)));\n    }\n\n    // Memory copy.\n    function memcpy(uint dest, uint src, uint len) pure private {\n        // Full 32 byte words\n        for(; len >= 32; len -= 32) {\n            assembly { mstore(dest, mload(src)) }\n            dest += 32; src += 32;\n        }\n\n        // Remaining bytes\n        uint mask = 256 ** (32 - len) - 1;\n        assembly {\n            let srcpart := and(mload(src), not(mask))\n            let destpart := and(mload(dest), mask)\n            mstore(dest, or(destpart, srcpart))\n        }\n    }\n}",
  "sourcePath": "/Users/dmitrijskislicenko/Workspace/4tune/contract/contracts/Dice.sol",
  "compiler": {
    "name": "solc",
    "version": "0.4.24+commit.e67f0147.Emscripten.clang"
  },
  "schemaVersion": "2.0.1",
  "updatedAt": "2019-01-25T16:16:48.117Z"
}