{
  "contractName": "FTNToken",
  "abi": [
    {
      "constant": true,
      "inputs": [],
      "name": "name",
      "outputs": [
        {
          "name": "",
          "type": "string"
        }
      ],
      "payable": false,
      "stateMutability": "view",
      "type": "function"
    },
    {
      "constant": false,
      "inputs": [
        {
          "name": "spender",
          "type": "address"
        },
        {
          "name": "value",
          "type": "uint256"
        }
      ],
      "name": "approve",
      "outputs": [
        {
          "name": "",
          "type": "bool"
        }
      ],
      "payable": false,
      "stateMutability": "nonpayable",
      "type": "function"
    },
    {
      "constant": true,
      "inputs": [],
      "name": "totalSupply",
      "outputs": [
        {
          "name": "",
          "type": "uint256"
        }
      ],
      "payable": false,
      "stateMutability": "view",
      "type": "function"
    },
    {
      "constant": false,
      "inputs": [
        {
          "name": "from",
          "type": "address"
        },
        {
          "name": "to",
          "type": "address"
        },
        {
          "name": "value",
          "type": "uint256"
        }
      ],
      "name": "transferFrom",
      "outputs": [
        {
          "name": "",
          "type": "bool"
        }
      ],
      "payable": false,
      "stateMutability": "nonpayable",
      "type": "function"
    },
    {
      "constant": true,
      "inputs": [],
      "name": "decimals",
      "outputs": [
        {
          "name": "",
          "type": "uint8"
        }
      ],
      "payable": false,
      "stateMutability": "view",
      "type": "function"
    },
    {
      "constant": false,
      "inputs": [
        {
          "name": "spender",
          "type": "address"
        },
        {
          "name": "addedValue",
          "type": "uint256"
        }
      ],
      "name": "increaseAllowance",
      "outputs": [
        {
          "name": "",
          "type": "bool"
        }
      ],
      "payable": false,
      "stateMutability": "nonpayable",
      "type": "function"
    },
    {
      "constant": false,
      "inputs": [
        {
          "name": "to",
          "type": "address"
        },
        {
          "name": "value",
          "type": "uint256"
        }
      ],
      "name": "mint",
      "outputs": [
        {
          "name": "",
          "type": "bool"
        }
      ],
      "payable": false,
      "stateMutability": "nonpayable",
      "type": "function"
    },
    {
      "constant": false,
      "inputs": [
        {
          "name": "value",
          "type": "uint256"
        }
      ],
      "name": "burn",
      "outputs": [],
      "payable": false,
      "stateMutability": "nonpayable",
      "type": "function"
    },
    {
      "constant": true,
      "inputs": [
        {
          "name": "owner",
          "type": "address"
        }
      ],
      "name": "balanceOf",
      "outputs": [
        {
          "name": "",
          "type": "uint256"
        }
      ],
      "payable": false,
      "stateMutability": "view",
      "type": "function"
    },
    {
      "constant": false,
      "inputs": [
        {
          "name": "from",
          "type": "address"
        },
        {
          "name": "value",
          "type": "uint256"
        }
      ],
      "name": "burnFrom",
      "outputs": [],
      "payable": false,
      "stateMutability": "nonpayable",
      "type": "function"
    },
    {
      "constant": true,
      "inputs": [],
      "name": "symbol",
      "outputs": [
        {
          "name": "",
          "type": "string"
        }
      ],
      "payable": false,
      "stateMutability": "view",
      "type": "function"
    },
    {
      "constant": false,
      "inputs": [
        {
          "name": "account",
          "type": "address"
        }
      ],
      "name": "addMinter",
      "outputs": [],
      "payable": false,
      "stateMutability": "nonpayable",
      "type": "function"
    },
    {
      "constant": false,
      "inputs": [],
      "name": "renounceMinter",
      "outputs": [],
      "payable": false,
      "stateMutability": "nonpayable",
      "type": "function"
    },
    {
      "constant": false,
      "inputs": [
        {
          "name": "spender",
          "type": "address"
        },
        {
          "name": "subtractedValue",
          "type": "uint256"
        }
      ],
      "name": "decreaseAllowance",
      "outputs": [
        {
          "name": "",
          "type": "bool"
        }
      ],
      "payable": false,
      "stateMutability": "nonpayable",
      "type": "function"
    },
    {
      "constant": false,
      "inputs": [
        {
          "name": "to",
          "type": "address"
        },
        {
          "name": "value",
          "type": "uint256"
        }
      ],
      "name": "transfer",
      "outputs": [
        {
          "name": "",
          "type": "bool"
        }
      ],
      "payable": false,
      "stateMutability": "nonpayable",
      "type": "function"
    },
    {
      "constant": true,
      "inputs": [
        {
          "name": "account",
          "type": "address"
        }
      ],
      "name": "isMinter",
      "outputs": [
        {
          "name": "",
          "type": "bool"
        }
      ],
      "payable": false,
      "stateMutability": "view",
      "type": "function"
    },
    {
      "constant": true,
      "inputs": [
        {
          "name": "owner",
          "type": "address"
        },
        {
          "name": "spender",
          "type": "address"
        }
      ],
      "name": "allowance",
      "outputs": [
        {
          "name": "",
          "type": "uint256"
        }
      ],
      "payable": false,
      "stateMutability": "view",
      "type": "function"
    },
    {
      "inputs": [
        {
          "name": "name",
          "type": "string"
        },
        {
          "name": "symbol",
          "type": "string"
        },
        {
          "name": "decimals",
          "type": "uint8"
        }
      ],
      "payable": false,
      "stateMutability": "nonpayable",
      "type": "constructor"
    },
    {
      "anonymous": false,
      "inputs": [
        {
          "indexed": true,
          "name": "account",
          "type": "address"
        }
      ],
      "name": "MinterAdded",
      "type": "event"
    },
    {
      "anonymous": false,
      "inputs": [
        {
          "indexed": true,
          "name": "account",
          "type": "address"
        }
      ],
      "name": "MinterRemoved",
      "type": "event"
    },
    {
      "anonymous": false,
      "inputs": [
        {
          "indexed": true,
          "name": "from",
          "type": "address"
        },
        {
          "indexed": true,
          "name": "to",
          "type": "address"
        },
        {
          "indexed": false,
          "name": "value",
          "type": "uint256"
        }
      ],
      "name": "Transfer",
      "type": "event"
    },
    {
      "anonymous": false,
      "inputs": [
        {
          "indexed": true,
          "name": "owner",
          "type": "address"
        },
        {
          "indexed": true,
          "name": "spender",
          "type": "address"
        },
        {
          "indexed": false,
          "name": "value",
          "type": "uint256"
        }
      ],
      "name": "Approval",
      "type": "event"
    }
  ],
  "bytecode": "0x60806040523480156200001157600080fd5b5060405162000e9f38038062000e9f833981016040908152815160208084015192840151918401805190949390930192849184918491620000589160039186019062000188565b5081516200006e90600490602085019062000188565b506005805460ff191660ff92909216919091179055506200009a905033640100000000620000a3810204565b5050506200022d565b620000be60068264010000000062000b9c620000f582021704565b604051600160a060020a038216907f6ae172837ea30b801fbfcdd4108aa1d5bf8ff775444fd70256b44e6bf3dfc3f690600090a250565b600160a060020a03811615156200010b57600080fd5b62000120828264010000000062000150810204565b156200012b57600080fd5b600160a060020a0316600090815260209190915260409020805460ff19166001179055565b6000600160a060020a03821615156200016857600080fd5b50600160a060020a03166000908152602091909152604090205460ff1690565b828054600181600116156101000203166002900490600052602060002090601f016020900481019282601f10620001cb57805160ff1916838001178555620001fb565b82800160010185558215620001fb579182015b82811115620001fb578251825591602001919060010190620001de565b50620002099291506200020d565b5090565b6200022a91905b8082111562000209576000815560010162000214565b90565b610c62806200023d6000396000f3006080604052600436106100f05763ffffffff7c010000000000000000000000000000000000000000000000000000000060003504166306fdde0381146100f5578063095ea7b31461017f57806318160ddd146101b757806323b872dd146101de578063313ce56714610208578063395093511461023357806340c10f191461025757806342966c681461027b57806370a082311461029557806379cc6790146102b657806395d89b41146102da578063983b2d56146102ef5780639865027514610310578063a457c2d714610325578063a9059cbb14610349578063aa271e1a1461036d578063dd62ed3e1461038e575b600080fd5b34801561010157600080fd5b5061010a6103b5565b6040805160208082528351818301528351919283929083019185019080838360005b8381101561014457818101518382015260200161012c565b50505050905090810190601f1680156101715780820380516001836020036101000a031916815260200191505b509250505060405180910390f35b34801561018b57600080fd5b506101a3600160a060020a036004351660243561044b565b604080519115158252519081900360200190f35b3480156101c357600080fd5b506101cc6104c9565b60408051918252519081900360200190f35b3480156101ea57600080fd5b506101a3600160a060020a03600435811690602435166044356104cf565b34801561021457600080fd5b5061021d61056c565b6040805160ff9092168252519081900360200190f35b34801561023f57600080fd5b506101a3600160a060020a0360043516602435610575565b34801561026357600080fd5b506101a3600160a060020a0360043516602435610625565b34801561028757600080fd5b5061029360043561064e565b005b3480156102a157600080fd5b506101cc600160a060020a036004351661065b565b3480156102c257600080fd5b50610293600160a060020a0360043516602435610676565b3480156102e657600080fd5b5061010a610684565b3480156102fb57600080fd5b50610293600160a060020a03600435166106e5565b34801561031c57600080fd5b50610293610702565b34801561033157600080fd5b506101a3600160a060020a036004351660243561070d565b34801561035557600080fd5b506101a3600160a060020a0360043516602435610758565b34801561037957600080fd5b506101a3600160a060020a0360043516610765565b34801561039a57600080fd5b506101cc600160a060020a036004358116906024351661077e565b60038054604080516020601f60026000196101006001881615020190951694909404938401819004810282018101909252828152606093909290918301828280156104415780601f1061041657610100808354040283529160200191610441565b820191906000526020600020905b81548152906001019060200180831161042457829003601f168201915b5050505050905090565b6000600160a060020a038316151561046257600080fd5b336000818152600160209081526040808320600160a060020a03881680855290835292819020869055805186815290519293927f8c5be1e5ebec7d5bd14f71427d1e84f3dd0314c0f7b2291e5b200ac8c7c3b925929181900390910190a350600192915050565b60025490565b600160a060020a03831660009081526001602090815260408083203384529091528120548211156104ff57600080fd5b600160a060020a0384166000908152600160209081526040808320338452909152902054610533908363ffffffff6107a916565b600160a060020a03851660009081526001602090815260408083203384529091529020556105628484846107c0565b5060019392505050565b60055460ff1690565b6000600160a060020a038316151561058c57600080fd5b336000908152600160209081526040808320600160a060020a03871684529091529020546105c0908363ffffffff6108b216565b336000818152600160209081526040808320600160a060020a0389168085529083529281902085905580519485525191937f8c5be1e5ebec7d5bd14f71427d1e84f3dd0314c0f7b2291e5b200ac8c7c3b925929081900390910190a350600192915050565b600061063033610765565b151561063b57600080fd5b61064583836108cb565b50600192915050565b6106583382610975565b50565b600160a060020a031660009081526020819052604090205490565b6106808282610a43565b5050565b60048054604080516020601f60026000196101006001881615020190951694909404938401819004810282018101909252828152606093909290918301828280156104415780601f1061041657610100808354040283529160200191610441565b6106ee33610765565b15156106f957600080fd5b61065881610ad5565b61070b33610b1d565b565b6000600160a060020a038316151561072457600080fd5b336000908152600160209081526040808320600160a060020a03871684529091529020546105c0908363ffffffff6107a916565b60006106453384846107c0565b600061077860068363ffffffff610b6516565b92915050565b600160a060020a03918216600090815260016020908152604080832093909416825291909152205490565b600080838311156107b957600080fd5b5050900390565b600160a060020a0383166000908152602081905260409020548111156107e557600080fd5b600160a060020a03821615156107fa57600080fd5b600160a060020a038316600090815260208190526040902054610823908263ffffffff6107a916565b600160a060020a038085166000908152602081905260408082209390935590841681522054610858908263ffffffff6108b216565b600160a060020a038084166000818152602081815260409182902094909455805185815290519193928716927fddf252ad1be2c89b69c2b068fc378daa952ba7f163c4a11628f55a4df523b3ef92918290030190a3505050565b6000828201838110156108c457600080fd5b9392505050565b600160a060020a03821615156108e057600080fd5b6002546108f3908263ffffffff6108b216565b600255600160a060020a03821660009081526020819052604090205461091f908263ffffffff6108b216565b600160a060020a0383166000818152602081815260408083209490945583518581529351929391927fddf252ad1be2c89b69c2b068fc378daa952ba7f163c4a11628f55a4df523b3ef9281900390910190a35050565b600160a060020a038216151561098a57600080fd5b600160a060020a0382166000908152602081905260409020548111156109af57600080fd5b6002546109c2908263ffffffff6107a916565b600255600160a060020a0382166000908152602081905260409020546109ee908263ffffffff6107a916565b600160a060020a038316600081815260208181526040808320949094558351858152935191937fddf252ad1be2c89b69c2b068fc378daa952ba7f163c4a11628f55a4df523b3ef929081900390910190a35050565b600160a060020a0382166000908152600160209081526040808320338452909152902054811115610a7357600080fd5b600160a060020a0382166000908152600160209081526040808320338452909152902054610aa7908263ffffffff6107a916565b600160a060020a03831660009081526001602090815260408083203384529091529020556106808282610975565b610ae660068263ffffffff610b9c16565b604051600160a060020a038216907f6ae172837ea30b801fbfcdd4108aa1d5bf8ff775444fd70256b44e6bf3dfc3f690600090a250565b610b2e60068263ffffffff610bea16565b604051600160a060020a038216907fe94479a9f7e1952cc78f2d6baab678adc1b772d936c6583def489e524cb6669290600090a250565b6000600160a060020a0382161515610b7c57600080fd5b50600160a060020a03166000908152602091909152604090205460ff1690565b600160a060020a0381161515610bb157600080fd5b610bbb8282610b65565b15610bc557600080fd5b600160a060020a0316600090815260209190915260409020805460ff19166001179055565b600160a060020a0381161515610bff57600080fd5b610c098282610b65565b1515610c1457600080fd5b600160a060020a0316600090815260209190915260409020805460ff191690555600a165627a7a7230582050f5f5ed4be5a6fb7ad365da3e949f6f36b622c1d79f6aab08f9408388b3dc540029",
  "source": "pragma solidity 0.4.24;\n\nimport \"openzeppelin-solidity/contracts/token/ERC20/ERC20.sol\";\nimport \"openzeppelin-solidity/contracts/token/ERC20/ERC20Detailed.sol\";\nimport \"openzeppelin-solidity/contracts/token/ERC20/ERC20Mintable.sol\";\nimport \"openzeppelin-solidity/contracts/token/ERC20/ERC20Burnable.sol\";\n\ncontract FTNToken is ERC20, ERC20Detailed, ERC20Mintable, ERC20Burnable {\n    constructor(\n        string name,\n        string symbol,\n        uint8 decimals\n    ) \n        ERC20Burnable()\n        ERC20Mintable()\n        ERC20Detailed(name, symbol, decimals)\n        ERC20() \n        public \n    {\n\n    }\n }\n",
  "sourcePath": "/Users/dmitrijskislicenko/Workspace/games/contract/contracts/FTNToken.sol",
  "compiler": {
    "name": "solc",
    "version": "0.4.24+commit.e67f0147.Emscripten.clang"
  },
  "schemaVersion": "2.0.1",
  "updatedAt": "2018-12-06T14:12:57.241Z"
}